{
  "contractName": "IpsumOfLOREMNFT",
  "abi": [
    {
      "inputs": [],
      "stateMutability": "nonpayable",
      "type": "constructor"
    },
    {
      "anonymous": false,
      "inputs": [
        {
          "indexed": false,
          "internalType": "address",
          "name": "tokenContract",
          "type": "address"
        },
        {
          "indexed": false,
          "internalType": "uint256",
          "name": "tokenId",
          "type": "uint256"
        },
        {
          "indexed": false,
          "internalType": "uint256",
          "name": "ipsumIdx",
          "type": "uint256"
        }
      ],
      "name": "IpsumAdded",
      "type": "event"
    },
    {
      "anonymous": false,
      "inputs": [
        {
          "indexed": false,
          "internalType": "address",
          "name": "tokenContract",
          "type": "address"
        },
        {
          "indexed": false,
          "internalType": "uint256",
          "name": "tokenId",
          "type": "uint256"
        },
        {
          "indexed": false,
          "internalType": "uint256",
          "name": "ipsumIdx",
          "type": "uint256"
        }
      ],
      "name": "IpsumUpdated",
      "type": "event"
    },
    {
      "anonymous": false,
      "inputs": [
        {
          "indexed": false,
          "internalType": "address",
          "name": "tokenContract",
          "type": "address"
        },
        {
          "indexed": false,
          "internalType": "uint256",
          "name": "tokenId",
          "type": "uint256"
        },
        {
          "indexed": false,
          "internalType": "uint256",
          "name": "ipsumIdx",
          "type": "uint256"
        }
      ],
      "name": "IpsumUpdatednsfw",
      "type": "event"
    },
    {
      "anonymous": false,
      "inputs": [
        {
          "indexed": true,
          "internalType": "address",
          "name": "previousOwner",
          "type": "address"
        },
        {
          "indexed": true,
          "internalType": "address",
          "name": "newOwner",
          "type": "address"
        }
      ],
      "name": "OwnershipTransferred",
      "type": "event"
    },
    {
      "inputs": [
        {
          "internalType": "address",
          "name": "",
          "type": "address"
        }
      ],
      "name": "IpsumTokenContract",
      "outputs": [
        {
          "internalType": "bool",
          "name": "",
          "type": "bool"
        }
      ],
      "stateMutability": "view",
      "type": "function",
      "constant": true
    },
    {
      "inputs": [],
      "name": "adminSigner",
      "outputs": [
        {
          "internalType": "address",
          "name": "",
          "type": "address"
        }
      ],
      "stateMutability": "view",
      "type": "function",
      "constant": true
    },
    {
      "inputs": [],
      "name": "owner",
      "outputs": [
        {
          "internalType": "address",
          "name": "",
          "type": "address"
        }
      ],
      "stateMutability": "view",
      "type": "function",
      "constant": true
    },
    {
      "inputs": [],
      "name": "renounceOwnership",
      "outputs": [],
      "stateMutability": "nonpayable",
      "type": "function"
    },
    {
      "inputs": [
        {
          "internalType": "address",
          "name": "",
          "type": "address"
        },
        {
          "internalType": "uint256",
          "name": "",
          "type": "uint256"
        },
        {
          "internalType": "uint256",
          "name": "",
          "type": "uint256"
        }
      ],
      "name": "tokenIpsum",
      "outputs": [
        {
          "internalType": "address",
          "name": "creator",
          "type": "address"
        },
        {
          "internalType": "bool",
          "name": "nsfw",
          "type": "bool"
        },
        {
          "internalType": "bool",
          "name": "ownerflip",
          "type": "bool"
        },
        {
          "internalType": "bool",
          "name": "adminflip",
          "type": "bool"
        },
        {
          "internalType": "string",
          "name": "ipsumMetadataURI",
          "type": "string"
        }
      ],
      "stateMutability": "view",
      "type": "function",
      "constant": true
    },
    {
      "inputs": [
        {
          "internalType": "address",
          "name": "newOwner",
          "type": "address"
        }
      ],
      "name": "transferOwnership",
      "outputs": [],
      "stateMutability": "nonpayable",
      "type": "function"
    },
    {
      "inputs": [
        {
          "internalType": "address",
          "name": "tokenContract",
          "type": "address"
        },
        {
          "internalType": "uint256",
          "name": "tokenId",
          "type": "uint256"
        }
      ],
      "name": "numIpsum",
      "outputs": [
        {
          "internalType": "uint256",
          "name": "",
          "type": "uint256"
        }
      ],
      "stateMutability": "view",
      "type": "function",
      "constant": true
    },
    {
      "inputs": [
        {
          "internalType": "address",
          "name": "tokenContract",
          "type": "address"
        },
        {
          "internalType": "uint256",
          "name": "tokenId",
          "type": "uint256"
        }
      ],
      "name": "IpsumFor",
      "outputs": [
        {
          "components": [
            {
              "internalType": "address",
              "name": "creator",
              "type": "address"
            },
            {
              "internalType": "bool",
              "name": "nsfw",
              "type": "bool"
            },
            {
              "internalType": "bool",
              "name": "ownerflip",
              "type": "bool"
            },
            {
              "internalType": "bool",
              "name": "adminflip",
              "type": "bool"
            },
            {
              "internalType": "string",
              "name": "ipsumMetadataURI",
              "type": "string"
            }
          ],
          "internalType": "struct IpsumOfLOREMNFT.Ipsum[]",
          "name": "",
          "type": "tuple[]"
        }
      ],
      "stateMutability": "view",
      "type": "function",
      "constant": true
    },
    {
      "inputs": [
        {
          "internalType": "address",
          "name": "tokenContract",
          "type": "address"
        },
        {
          "internalType": "uint256",
          "name": "tokenId",
          "type": "uint256"
        },
        {
          "internalType": "uint256",
          "name": "startIdx",
          "type": "uint256"
        },
        {
          "internalType": "uint256",
          "name": "endIdx",
          "type": "uint256"
        }
      ],
      "name": "IpsumAt",
      "outputs": [
        {
          "components": [
            {
              "internalType": "address",
              "name": "creator",
              "type": "address"
            },
            {
              "internalType": "bool",
              "name": "nsfw",
              "type": "bool"
            },
            {
              "internalType": "bool",
              "name": "ownerflip",
              "type": "bool"
            },
            {
              "internalType": "bool",
              "name": "adminflip",
              "type": "bool"
            },
            {
              "internalType": "string",
              "name": "ipsumMetadataURI",
              "type": "string"
            }
          ],
          "internalType": "struct IpsumOfLOREMNFT.Ipsum[]",
          "name": "",
          "type": "tuple[]"
        }
      ],
      "stateMutability": "view",
      "type": "function",
      "constant": true
    },
    {
      "inputs": [
        {
          "internalType": "uint256",
          "name": "tokenId",
          "type": "uint256"
        }
      ],
      "name": "isCCOtoken",
      "outputs": [
        {
          "internalType": "bool",
          "name": "",
          "type": "bool"
        }
      ],
      "stateMutability": "pure",
      "type": "function",
      "constant": true
    },
    {
      "inputs": [
        {
          "internalType": "address",
          "name": "tokenContract",
          "type": "address"
        },
        {
          "internalType": "address",
          "name": "tokenOwner",
          "type": "address"
        },
        {
          "internalType": "uint256",
          "name": "tokenId",
          "type": "uint256"
        }
      ],
      "name": "isownerOf",
      "outputs": [
        {
          "internalType": "bool",
          "name": "",
          "type": "bool"
        }
      ],
      "stateMutability": "view",
      "type": "function",
      "constant": true
    },
    {
      "inputs": [
        {
          "internalType": "address",
          "name": "tokenContract",
          "type": "address"
        },
        {
          "internalType": "uint256",
          "name": "tokenId",
          "type": "uint256"
        },
        {
          "internalType": "string",
          "name": "ipsumMetadataURI",
          "type": "string"
        }
      ],
      "name": "addIpsum",
      "outputs": [],
      "stateMutability": "nonpayable",
      "type": "function"
    },
    {
      "inputs": [
        {
          "internalType": "bytes",
          "name": "signature",
          "type": "bytes"
        },
        {
          "internalType": "address",
          "name": "tokenContract",
          "type": "address"
        },
        {
          "internalType": "uint256",
          "name": "tokenId",
          "type": "uint256"
        },
        {
          "internalType": "uint256",
          "name": "ipsumIdx",
          "type": "uint256"
        },
        {
          "internalType": "string",
          "name": "ipsumMetadataURI",
          "type": "string"
        }
      ],
      "name": "addIpsumWithSignature",
      "outputs": [],
      "stateMutability": "nonpayable",
      "type": "function"
    },
    {
      "inputs": [
        {
          "internalType": "address",
          "name": "tokenContract",
          "type": "address"
        },
        {
          "internalType": "uint256",
          "name": "tokenId",
          "type": "uint256"
        },
        {
          "internalType": "uint256",
          "name": "ipsumIdx",
          "type": "uint256"
        },
        {
          "internalType": "string",
          "name": "newipsumMetadataURI",
          "type": "string"
        }
      ],
      "name": "updateIpsumMetadataURI",
      "outputs": [],
      "stateMutability": "nonpayable",
      "type": "function"
    },
    {
      "inputs": [
        {
          "internalType": "address",
          "name": "tokenContract",
          "type": "address"
        },
        {
          "internalType": "uint256",
          "name": "tokenId",
          "type": "uint256"
        },
        {
          "internalType": "uint256",
          "name": "ipsumIdx",
          "type": "uint256"
        },
        {
          "internalType": "bool",
          "name": "newnsfw",
          "type": "bool"
        }
      ],
      "name": "updateIpsumnsfw",
      "outputs": [],
      "stateMutability": "nonpayable",
      "type": "function"
    },
    {
      "inputs": [
        {
          "internalType": "address",
          "name": "tokenContract",
          "type": "address"
        },
        {
          "internalType": "uint256",
          "name": "tokenId",
          "type": "uint256"
        },
        {
          "internalType": "uint256",
          "name": "ipsumIdx",
          "type": "uint256"
        },
        {
          "internalType": "bool",
          "name": "newownerflip",
          "type": "bool"
        }
      ],
      "name": "updateIpsumOwnerflip",
      "outputs": [],
      "stateMutability": "nonpayable",
      "type": "function"
    },
    {
      "inputs": [
        {
          "internalType": "address",
          "name": "tokenContract",
          "type": "address"
        },
        {
          "internalType": "uint256",
          "name": "tokenId",
          "type": "uint256"
        },
        {
          "internalType": "uint256",
          "name": "ipsumIdx",
          "type": "uint256"
        },
        {
          "internalType": "bool",
          "name": "newadminflip",
          "type": "bool"
        }
      ],
      "name": "updateIpsumAdminflip",
      "outputs": [],
      "stateMutability": "nonpayable",
      "type": "function"
    },
    {
      "inputs": [
        {
          "internalType": "address",
          "name": "tokenContract",
          "type": "address"
        },
        {
          "internalType": "bool",
          "name": "isListed",
          "type": "bool"
        }
      ],
      "name": "setIpsumTokenContract",
      "outputs": [],
      "stateMutability": "nonpayable",
      "type": "function"
    },
    {
      "inputs": [
        {
          "internalType": "address",
          "name": "newSigner",
          "type": "address"
        }
      ],
      "name": "setSigner",
      "outputs": [],
      "stateMutability": "nonpayable",
      "type": "function"
    }
  ],
  "bytecode": "0x60806040523480156200001157600080fd5b5062000032620000266200003860201b60201c565b6200004060201b60201c565b62000104565b600033905090565b60008060009054906101000a900473ffffffffffffffffffffffffffffffffffffffff169050816000806101000a81548173ffffffffffffffffffffffffffffffffffffffff021916908373ffffffffffffffffffffffffffffffffffffffff1602179055508173ffffffffffffffffffffffffffffffffffffffff168173ffffffffffffffffffffffffffffffffffffffff167f8be0079c531659141344cd1fd0a4f28419497f9722a3daafe3b4186f6b6457e060405160405180910390a35050565b61378680620001146000396000f3fe608060405234801561001057600080fd5b50600436106101215760003560e01c80638a0f6abc116100ad578063ee59247411610071578063ee5924741461031a578063f2fde38b14610336578063f750358c14610352578063fcf7afbb14610382578063ff9d2dcc1461039e57610121565b80638a0f6abc146102605780638da5cb5b1461027c5780639db5838b1461029a5780639ea7b560146102ce578063aea59b99146102ea57610121565b80636124f192116100f45780636124f192146101d257806363bda32b146101ee5780636c19e7831461020a578063715018a614610226578063815dff381461023057610121565b80631eec1b81146101265780632fe7725514610156578063336e572b146101865780634f8441ce146101a2575b600080fd5b610140600480360381019061013b919061246d565b6103bc565b60405161014d91906124bc565b60405180910390f35b610170600480360381019061016b91906124d7565b61041a565b60405161017d9190612739565b60405180910390f35b6101a0600480360381019061019b9190612787565b6106b0565b005b6101bc60048036038101906101b791906127c7565b610713565b6040516101c99190612803565b60405180910390f35b6101ec60048036038101906101e79190612953565b610733565b005b610208600480360381019061020391906129c2565b610aef565b005b610224600480360381019061021f91906127c7565b610e52565b005b61022e610e9e565b005b61024a60048036038101906102459190612a45565b610eb2565b6040516102579190612803565b60405180910390f35b61027a60048036038101906102759190612a98565b610ff3565b005b610284611155565b6040516102919190612b0e565b60405180910390f35b6102b460048036038101906102af9190612b29565b61117e565b6040516102c5959493929190612bc6565b60405180910390f35b6102e860048036038101906102e39190612a98565b6112ad565b005b61030460048036038101906102ff919061246d565b61153f565b6040516103119190612739565b60405180910390f35b610334600480360381019061032f9190612cc1565b611728565b005b610350600480360381019061034b91906127c7565b611b13565b005b61036c60048036038101906103679190612d74565b611b96565b6040516103799190612803565b60405180910390f35b61039c60048036038101906103979190612a98565b611bb3565b005b6103a6611d58565b6040516103b39190612b0e565b60405180910390f35b6000600160008473ffffffffffffffffffffffffffffffffffffffff1673ffffffffffffffffffffffffffffffffffffffff168152602001908152602001600020600083815260200190815260200160002080549050905092915050565b606060006001848461042c9190612dd0565b6104369190612e04565b67ffffffffffffffff81111561044f5761044e612828565b5b60405190808252806020026020018201604052801561048857816020015b6104756122d7565b81526020019060019003908161046d5790505b50905060006001858561049b9190612dd0565b6104a59190612e04565b905060005b818110156106a257600160008973ffffffffffffffffffffffffffffffffffffffff1673ffffffffffffffffffffffffffffffffffffffff1681526020019081526020016000206000888152602001908152602001600020818761050e9190612e04565b8154811061051f5761051e612e5a565b5b90600052602060002090600202016040518060a00160405290816000820160009054906101000a900473ffffffffffffffffffffffffffffffffffffffff1673ffffffffffffffffffffffffffffffffffffffff1673ffffffffffffffffffffffffffffffffffffffff1681526020016000820160149054906101000a900460ff161515151581526020016000820160159054906101000a900460ff161515151581526020016000820160169054906101000a900460ff161515151581526020016001820180546105ef90612eb8565b80601f016020809104026020016040519081016040528092919081815260200182805461061b90612eb8565b80156106685780601f1061063d57610100808354040283529160200191610668565b820191906000526020600020905b81548152906001019060200180831161064b57829003601f168201915b50505050508152505083828151811061068457610683612e5a565b5b6020026020010181905250808061069a90612ee9565b9150506104aa565b508192505050949350505050565b6106b8611d7e565b80600260008473ffffffffffffffffffffffffffffffffffffffff1673ffffffffffffffffffffffffffffffffffffffff16815260200190815260200160002060006101000a81548160ff0219169083151502179055505050565b60026020528060005260406000206000915054906101000a900460ff1681565b82600260008273ffffffffffffffffffffffffffffffffffffffff1673ffffffffffffffffffffffffffffffffffffffff16815260200190815260200160002060009054906101000a900460ff166107c0576040517f08c379a00000000000000000000000000000000000000000000000000000000081526004016107b790612fa3565b60405180910390fd5b60008473ffffffffffffffffffffffffffffffffffffffff16636352211e856040518263ffffffff1660e01b81526004016107fb91906124bc565b602060405180830381865afa158015610818573d6000803e3d6000fd5b505050506040513d601f19601f8201168201806040525081019061083c9190612fd8565b9050610846611dfc565b73ffffffffffffffffffffffffffffffffffffffff168173ffffffffffffffffffffffffffffffffffffffff161480610884575061088384611b96565b5b6108c3576040517f08c379a00000000000000000000000000000000000000000000000000000000081526004016108ba90613051565b60405180910390fd5b600160008673ffffffffffffffffffffffffffffffffffffffff1673ffffffffffffffffffffffffffffffffffffffff16815260200190815260200160002060008581526020019081526020016000206040518060a00160405280610926611dfc565b73ffffffffffffffffffffffffffffffffffffffff16815260200160001515815260200160011515815260200160011515815260200185815250908060018154018082558091505060019003906000526020600020906002020160009091909190915060008201518160000160006101000a81548173ffffffffffffffffffffffffffffffffffffffff021916908373ffffffffffffffffffffffffffffffffffffffff16021790555060208201518160000160146101000a81548160ff02191690831515021790555060408201518160000160156101000a81548160ff02191690831515021790555060608201518160000160166101000a81548160ff0219169083151502179055506080820151816001019080519060200190610a4c929190612322565b5050507f9f2e013e5af71f1281b824c0cf59811f7f6f6201cb7b899874ca7b540584adcc858560018060008a73ffffffffffffffffffffffffffffffffffffffff1673ffffffffffffffffffffffffffffffffffffffff168152602001908152602001600020600089815260200190815260200160002080549050610ad19190612dd0565b604051610ae093929190613071565b60405180910390a15050505050565b83600260008273ffffffffffffffffffffffffffffffffffffffff1673ffffffffffffffffffffffffffffffffffffffff16815260200190815260200160002060009054906101000a900460ff16610b7c576040517f08c379a0000000000000000000000000000000000000000000000000000000008152600401610b7390612fa3565b60405180910390fd5b60008573ffffffffffffffffffffffffffffffffffffffff16636352211e866040518263ffffffff1660e01b8152600401610bb791906124bc565b602060405180830381865afa158015610bd4573d6000803e3d6000fd5b505050506040513d601f19601f82011682018060405250810190610bf89190612fd8565b9050610c02611dfc565b73ffffffffffffffffffffffffffffffffffffffff16600160008873ffffffffffffffffffffffffffffffffffffffff1673ffffffffffffffffffffffffffffffffffffffff16815260200190815260200160002060008781526020019081526020016000208581548110610c7a57610c79612e5a565b5b906000526020600020906002020160000160009054906101000a900473ffffffffffffffffffffffffffffffffffffffff1673ffffffffffffffffffffffffffffffffffffffff1614610d02576040517f08c379a0000000000000000000000000000000000000000000000000000000008152600401610cf9906130f4565b60405180910390fd5b610d0a611dfc565b73ffffffffffffffffffffffffffffffffffffffff168173ffffffffffffffffffffffffffffffffffffffff161480610d485750610d4785611b96565b5b610d87576040517f08c379a0000000000000000000000000000000000000000000000000000000008152600401610d7e90613051565b60405180910390fd5b82600160008873ffffffffffffffffffffffffffffffffffffffff1673ffffffffffffffffffffffffffffffffffffffff16815260200190815260200160002060008781526020019081526020016000208581548110610dea57610de9612e5a565b5b90600052602060002090600202016001019080519060200190610e0e929190612322565b507f6a441c5ee00041fab89288a3193cf084b3eeba3b1d90a225e7809556ca8da779868686604051610e4293929190613071565b60405180910390a1505050505050565b610e5a611d7e565b80600360006101000a81548173ffffffffffffffffffffffffffffffffffffffff021916908373ffffffffffffffffffffffffffffffffffffffff16021790555050565b610ea6611d7e565b610eb06000611e04565b565b600083600260008273ffffffffffffffffffffffffffffffffffffffff1673ffffffffffffffffffffffffffffffffffffffff16815260200190815260200160002060009054906101000a900460ff16610f41576040517f08c379a0000000000000000000000000000000000000000000000000000000008152600401610f3890612fa3565b60405180910390fd5b8373ffffffffffffffffffffffffffffffffffffffff168573ffffffffffffffffffffffffffffffffffffffff16636352211e856040518263ffffffff1660e01b8152600401610f9191906124bc565b602060405180830381865afa158015610fae573d6000803e3d6000fd5b505050506040513d601f19601f82011682018060405250810190610fd29190612fd8565b73ffffffffffffffffffffffffffffffffffffffff16149150509392505050565b83600260008273ffffffffffffffffffffffffffffffffffffffff1673ffffffffffffffffffffffffffffffffffffffff16815260200190815260200160002060009054906101000a900460ff16611080576040517f08c379a000000000000000000000000000000000000000000000000000000000815260040161107790612fa3565b60405180910390fd5b611088611d7e565b81600160008773ffffffffffffffffffffffffffffffffffffffff1673ffffffffffffffffffffffffffffffffffffffff168152602001908152602001600020600086815260200190815260200160002084815481106110eb576110ea612e5a565b5b906000526020600020906002020160000160166101000a81548160ff0219169083151502179055507f6a441c5ee00041fab89288a3193cf084b3eeba3b1d90a225e7809556ca8da77985858560405161114693929190613071565b60405180910390a15050505050565b60008060009054906101000a900473ffffffffffffffffffffffffffffffffffffffff16905090565b600160205282600052604060002060205281600052604060002081815481106111a657600080fd5b906000526020600020906002020160009250925050508060000160009054906101000a900473ffffffffffffffffffffffffffffffffffffffff16908060000160149054906101000a900460ff16908060000160159054906101000a900460ff16908060000160169054906101000a900460ff169080600101805461122a90612eb8565b80601f016020809104026020016040519081016040528092919081815260200182805461125690612eb8565b80156112a35780601f10611278576101008083540402835291602001916112a3565b820191906000526020600020905b81548152906001019060200180831161128657829003601f168201915b5050505050905085565b83600260008273ffffffffffffffffffffffffffffffffffffffff1673ffffffffffffffffffffffffffffffffffffffff16815260200190815260200160002060009054906101000a900460ff1661133a576040517f08c379a000000000000000000000000000000000000000000000000000000000815260040161133190612fa3565b60405180910390fd5b60008573ffffffffffffffffffffffffffffffffffffffff16636352211e866040518263ffffffff1660e01b815260040161137591906124bc565b602060405180830381865afa158015611392573d6000803e3d6000fd5b505050506040513d601f19601f820116820180604052508101906113b69190612fd8565b90506113c0611dfc565b73ffffffffffffffffffffffffffffffffffffffff168173ffffffffffffffffffffffffffffffffffffffff16148061143257506113fc611dfc565b73ffffffffffffffffffffffffffffffffffffffff1661141a611155565b73ffffffffffffffffffffffffffffffffffffffff16145b611471576040517f08c379a000000000000000000000000000000000000000000000000000000000815260040161146890613051565b60405180910390fd5b82600160008873ffffffffffffffffffffffffffffffffffffffff1673ffffffffffffffffffffffffffffffffffffffff168152602001908152602001600020600087815260200190815260200160002085815481106114d4576114d3612e5a565b5b906000526020600020906002020160000160156101000a81548160ff0219169083151502179055507f6a441c5ee00041fab89288a3193cf084b3eeba3b1d90a225e7809556ca8da77986868660405161152f93929190613071565b60405180910390a1505050505050565b6060600160008473ffffffffffffffffffffffffffffffffffffffff1673ffffffffffffffffffffffffffffffffffffffff1681526020019081526020016000206000838152602001908152602001600020805480602002602001604051908101604052809291908181526020016000905b8282101561171c57838290600052602060002090600202016040518060a00160405290816000820160009054906101000a900473ffffffffffffffffffffffffffffffffffffffff1673ffffffffffffffffffffffffffffffffffffffff1673ffffffffffffffffffffffffffffffffffffffff1681526020016000820160149054906101000a900460ff161515151581526020016000820160159054906101000a900460ff161515151581526020016000820160169054906101000a900460ff1615151515815260200160018201805461168b90612eb8565b80601f01602080910402602001604051908101604052809291908181526020018280546116b790612eb8565b80156117045780601f106116d957610100808354040283529160200191611704565b820191906000526020600020905b8154815290600101906020018083116116e757829003601f168201915b505050505081525050815260200190600101906115b1565b50505050905092915050565b83600260008273ffffffffffffffffffffffffffffffffffffffff1673ffffffffffffffffffffffffffffffffffffffff16815260200190815260200160002060009054906101000a900460ff166117b5576040517f08c379a00000000000000000000000000000000000000000000000000000000081526004016117ac90612fa3565b60405180910390fd5b6000856117c0611dfc565b86866040516020016117d5949392919061317d565b60405160208183030381529060405280519060200120905060006117f882611ec8565b90506000611806828a611ef8565b9050600360009054906101000a900473ffffffffffffffffffffffffffffffffffffffff1673ffffffffffffffffffffffffffffffffffffffff168173ffffffffffffffffffffffffffffffffffffffff1614611898576040517f08c379a000000000000000000000000000000000000000000000000000000000815260040161188f90613217565b60405180910390fd5b856118a389896103bc565b146118e3576040517f08c379a00000000000000000000000000000000000000000000000000000000081526004016118da90613283565b60405180910390fd5b600160008973ffffffffffffffffffffffffffffffffffffffff1673ffffffffffffffffffffffffffffffffffffffff16815260200190815260200160002060008881526020019081526020016000206040518060a00160405280611946611dfc565b73ffffffffffffffffffffffffffffffffffffffff16815260200160001515815260200160011515815260200160011515815260200187815250908060018154018082558091505060019003906000526020600020906002020160009091909190915060008201518160000160006101000a81548173ffffffffffffffffffffffffffffffffffffffff021916908373ffffffffffffffffffffffffffffffffffffffff16021790555060208201518160000160146101000a81548160ff02191690831515021790555060408201518160000160156101000a81548160ff02191690831515021790555060608201518160000160166101000a81548160ff0219169083151502179055506080820151816001019080519060200190611a6c929190612322565b5050507f9f2e013e5af71f1281b824c0cf59811f7f6f6201cb7b899874ca7b540584adcc888860018060008d73ffffffffffffffffffffffffffffffffffffffff1673ffffffffffffffffffffffffffffffffffffffff16815260200190815260200160002060008c815260200190815260200160002080549050611af19190612dd0565b604051611b0093929190613071565b60405180910390a1505050505050505050565b611b1b611d7e565b600073ffffffffffffffffffffffffffffffffffffffff168173ffffffffffffffffffffffffffffffffffffffff1603611b8a576040517f08c379a0000000000000000000000000000000000000000000000000000000008152600401611b8190613315565b60405180910390fd5b611b9381611e04565b50565b60006126ac8210158015611bac575061270f8211155b9050919050565b83600260008273ffffffffffffffffffffffffffffffffffffffff1673ffffffffffffffffffffffffffffffffffffffff16815260200190815260200160002060009054906101000a900460ff16611c40576040517f08c379a0000000000000000000000000000000000000000000000000000000008152600401611c3790612fa3565b60405180910390fd5b611c4a85856103bc565b8310611c8b576040517f08c379a0000000000000000000000000000000000000000000000000000000008152600401611c8290613381565b60405180910390fd5b81600160008773ffffffffffffffffffffffffffffffffffffffff1673ffffffffffffffffffffffffffffffffffffffff16815260200190815260200160002060008681526020019081526020016000208481548110611cee57611ced612e5a565b5b906000526020600020906002020160000160146101000a81548160ff0219169083151502179055507fff3a8e67da4c529ce6dd272e9e2a76c399aebb88e47496c756bb9cd822d6c479858585604051611d4993929190613071565b60405180910390a15050505050565b600360009054906101000a900473ffffffffffffffffffffffffffffffffffffffff1681565b611d86611dfc565b73ffffffffffffffffffffffffffffffffffffffff16611da4611155565b73ffffffffffffffffffffffffffffffffffffffff1614611dfa576040517f08c379a0000000000000000000000000000000000000000000000000000000008152600401611df1906133ed565b60405180910390fd5b565b600033905090565b60008060009054906101000a900473ffffffffffffffffffffffffffffffffffffffff169050816000806101000a81548173ffffffffffffffffffffffffffffffffffffffff021916908373ffffffffffffffffffffffffffffffffffffffff1602179055508173ffffffffffffffffffffffffffffffffffffffff168173ffffffffffffffffffffffffffffffffffffffff167f8be0079c531659141344cd1fd0a4f28419497f9722a3daafe3b4186f6b6457e060405160405180910390a35050565b600081604051602001611edb919061348f565b604051602081830303815290604052805190602001209050919050565b6000806000611f078585611f1f565b91509150611f1481611fa0565b819250505092915050565b6000806041835103611f605760008060006020860151925060408601519150606086015160001a9050611f548782858561216c565b94509450505050611f99565b6040835103611f90576000806020850151915060408501519050611f85868383612278565b935093505050611f99565b60006002915091505b9250929050565b60006004811115611fb457611fb36134b5565b5b816004811115611fc757611fc66134b5565b5b03156121695760016004811115611fe157611fe06134b5565b5b816004811115611ff457611ff36134b5565b5b03612034576040517f08c379a000000000000000000000000000000000000000000000000000000000815260040161202b90613530565b60405180910390fd5b60026004811115612048576120476134b5565b5b81600481111561205b5761205a6134b5565b5b0361209b576040517f08c379a00000000000000000000000000000000000000000000000000000000081526004016120929061359c565b60405180910390fd5b600360048111156120af576120ae6134b5565b5b8160048111156120c2576120c16134b5565b5b03612102576040517f08c379a00000000000000000000000000000000000000000000000000000000081526004016120f99061362e565b60405180910390fd5b600480811115612115576121146134b5565b5b816004811115612128576121276134b5565b5b03612168576040517f08c379a000000000000000000000000000000000000000000000000000000000815260040161215f906136c0565b60405180910390fd5b5b50565b6000807f7fffffffffffffffffffffffffffffff5d576e7357a4501ddfe92f46681b20a08360001c11156121a757600060039150915061226f565b601b8560ff16141580156121bf5750601c8560ff1614155b156121d157600060049150915061226f565b6000600187878787604051600081526020016040526040516121f6949392919061370b565b6020604051602081039080840390855afa158015612218573d6000803e3d6000fd5b505050602060405103519050600073ffffffffffffffffffffffffffffffffffffffff168173ffffffffffffffffffffffffffffffffffffffff16036122665760006001925092505061226f565b80600092509250505b94509492505050565b60008060007f7fffffffffffffffffffffffffffffffffffffffffffffffffffffffffffffff60001b841690506000601b60ff8660001c901c6122bb9190612e04565b90506122c98782888561216c565b935093505050935093915050565b6040518060a00160405280600073ffffffffffffffffffffffffffffffffffffffff168152602001600015158152602001600015158152602001600015158152602001606081525090565b82805461232e90612eb8565b90600052602060002090601f0160209004810192826123505760008555612397565b82601f1061236957805160ff1916838001178555612397565b82800160010185558215612397579182015b8281111561239657825182559160200191906001019061237b565b5b5090506123a491906123a8565b5090565b5b808211156123c15760008160009055506001016123a9565b5090565b6000604051905090565b600080fd5b600080fd5b600073ffffffffffffffffffffffffffffffffffffffff82169050919050565b6000612404826123d9565b9050919050565b612414816123f9565b811461241f57600080fd5b50565b6000813590506124318161240b565b92915050565b6000819050919050565b61244a81612437565b811461245557600080fd5b50565b60008135905061246781612441565b92915050565b60008060408385031215612484576124836123cf565b5b600061249285828601612422565b92505060206124a385828601612458565b9150509250929050565b6124b681612437565b82525050565b60006020820190506124d160008301846124ad565b92915050565b600080600080608085870312156124f1576124f06123cf565b5b60006124ff87828801612422565b945050602061251087828801612458565b935050604061252187828801612458565b925050606061253287828801612458565b91505092959194509250565b600081519050919050565b600082825260208201905092915050565b6000819050602082019050919050565b612573816123f9565b82525050565b60008115159050919050565b61258e81612579565b82525050565b600081519050919050565b600082825260208201905092915050565b60005b838110156125ce5780820151818401526020810190506125b3565b838111156125dd576000848401525b50505050565b6000601f19601f8301169050919050565b60006125ff82612594565b612609818561259f565b93506126198185602086016125b0565b612622816125e3565b840191505092915050565b600060a083016000830151612645600086018261256a565b5060208301516126586020860182612585565b50604083015161266b6040860182612585565b50606083015161267e6060860182612585565b506080830151848203608086015261269682826125f4565b9150508091505092915050565b60006126af838361262d565b905092915050565b6000602082019050919050565b60006126cf8261253e565b6126d98185612549565b9350836020820285016126eb8561255a565b8060005b85811015612727578484038952815161270885826126a3565b9450612713836126b7565b925060208a019950506001810190506126ef565b50829750879550505050505092915050565b6000602082019050818103600083015261275381846126c4565b905092915050565b61276481612579565b811461276f57600080fd5b50565b6000813590506127818161275b565b92915050565b6000806040838503121561279e5761279d6123cf565b5b60006127ac85828601612422565b92505060206127bd85828601612772565b9150509250929050565b6000602082840312156127dd576127dc6123cf565b5b60006127eb84828501612422565b91505092915050565b6127fd81612579565b82525050565b600060208201905061281860008301846127f4565b92915050565b600080fd5b600080fd5b7f4e487b7100000000000000000000000000000000000000000000000000000000600052604160045260246000fd5b612860826125e3565b810181811067ffffffffffffffff8211171561287f5761287e612828565b5b80604052505050565b60006128926123c5565b905061289e8282612857565b919050565b600067ffffffffffffffff8211156128be576128bd612828565b5b6128c7826125e3565b9050602081019050919050565b82818337600083830152505050565b60006128f66128f1846128a3565b612888565b90508281526020810184848401111561291257612911612823565b5b61291d8482856128d4565b509392505050565b600082601f83011261293a5761293961281e565b5b813561294a8482602086016128e3565b91505092915050565b60008060006060848603121561296c5761296b6123cf565b5b600061297a86828701612422565b935050602061298b86828701612458565b925050604084013567ffffffffffffffff8111156129ac576129ab6123d4565b5b6129b886828701612925565b9150509250925092565b600080600080608085870312156129dc576129db6123cf565b5b60006129ea87828801612422565b94505060206129fb87828801612458565b9350506040612a0c87828801612458565b925050606085013567ffffffffffffffff811115612a2d57612a2c6123d4565b5b612a3987828801612925565b91505092959194509250565b600080600060608486031215612a5e57612a5d6123cf565b5b6000612a6c86828701612422565b9350506020612a7d86828701612422565b9250506040612a8e86828701612458565b9150509250925092565b60008060008060808587031215612ab257612ab16123cf565b5b6000612ac087828801612422565b9450506020612ad187828801612458565b9350506040612ae287828801612458565b9250506060612af387828801612772565b91505092959194509250565b612b08816123f9565b82525050565b6000602082019050612b236000830184612aff565b92915050565b600080600060608486031215612b4257612b416123cf565b5b6000612b5086828701612422565b9350506020612b6186828701612458565b9250506040612b7286828701612458565b9150509250925092565b600082825260208201905092915050565b6000612b9882612594565b612ba28185612b7c565b9350612bb28185602086016125b0565b612bbb816125e3565b840191505092915050565b600060a082019050612bdb6000830188612aff565b612be860208301876127f4565b612bf560408301866127f4565b612c0260608301856127f4565b8181036080830152612c148184612b8d565b90509695505050505050565b600067ffffffffffffffff821115612c3b57612c3a612828565b5b612c44826125e3565b9050602081019050919050565b6000612c64612c5f84612c20565b612888565b905082815260208101848484011115612c8057612c7f612823565b5b612c8b8482856128d4565b509392505050565b600082601f830112612ca857612ca761281e565b5b8135612cb8848260208601612c51565b91505092915050565b600080600080600060a08688031215612cdd57612cdc6123cf565b5b600086013567ffffffffffffffff811115612cfb57612cfa6123d4565b5b612d0788828901612c93565b9550506020612d1888828901612422565b9450506040612d2988828901612458565b9350506060612d3a88828901612458565b925050608086013567ffffffffffffffff811115612d5b57612d5a6123d4565b5b612d6788828901612925565b9150509295509295909350565b600060208284031215612d8a57612d896123cf565b5b6000612d9884828501612458565b91505092915050565b7f4e487b7100000000000000000000000000000000000000000000000000000000600052601160045260246000fd5b6000612ddb82612437565b9150612de683612437565b925082821015612df957612df8612da1565b5b828203905092915050565b6000612e0f82612437565b9150612e1a83612437565b9250827fffffffffffffffffffffffffffffffffffffffffffffffffffffffffffffffff03821115612e4f57612e4e612da1565b5b828201905092915050565b7f4e487b7100000000000000000000000000000000000000000000000000000000600052603260045260246000fd5b7f4e487b7100000000000000000000000000000000000000000000000000000000600052602260045260246000fd5b60006002820490506001821680612ed057607f821691505b602082108103612ee357612ee2612e89565b5b50919050565b6000612ef482612437565b91507fffffffffffffffffffffffffffffffffffffffffffffffffffffffffffffffff8203612f2657612f25612da1565b5b600182019050919050565b7f746f6b656e436f6e7472616374206973206e6f74206f6e2074686520616c6c6f60008201527f776c697374000000000000000000000000000000000000000000000000000000602082015250565b6000612f8d602583612b7c565b9150612f9882612f31565b604082019050919050565b60006020820190508181036000830152612fbc81612f80565b9050919050565b600081519050612fd28161240b565b92915050565b600060208284031215612fee57612fed6123cf565b5b6000612ffc84828501612fc3565b91505092915050565b7f6e6f7420746f6b656e206f776e65720000000000000000000000000000000000600082015250565b600061303b600f83612b7c565b915061304682613005565b602082019050919050565b6000602082019050818103600083015261306a8161302e565b9050919050565b60006060820190506130866000830186612aff565b61309360208301856124ad565b6130a060408301846124ad565b949350505050565b7f6e6f7420697073756d4964782063726561746f72000000000000000000000000600082015250565b60006130de601483612b7c565b91506130e9826130a8565b602082019050919050565b6000602082019050818103600083015261310d816130d1565b9050919050565b60008160601b9050919050565b600061312c82613114565b9050919050565b600061313e82613121565b9050919050565b613156613151826123f9565b613133565b82525050565b6000819050919050565b61317761317282612437565b61315c565b82525050565b60006131898287613145565b6014820191506131998286613145565b6014820191506131a98285613166565b6020820191506131b98284613166565b60208201915081905095945050505050565b7f61757468206661696c0000000000000000000000000000000000000000000000600082015250565b6000613201600983612b7c565b915061320c826131cb565b602082019050919050565b60006020820190508181036000830152613230816131f4565b9050919050565b7f697073756d49647820646f6573206e6f74206578697374000000000000000000600082015250565b600061326d601783612b7c565b915061327882613237565b602082019050919050565b6000602082019050818103600083015261329c81613260565b9050919050565b7f4f776e61626c653a206e6577206f776e657220697320746865207a65726f206160008201527f6464726573730000000000000000000000000000000000000000000000000000602082015250565b60006132ff602683612b7c565b915061330a826132a3565b604082019050919050565b6000602082019050818103600083015261332e816132f2565b9050919050565b7f697073756d69647820646f6573206e6f74206578697374000000000000000000600082015250565b600061336b601783612b7c565b915061337682613335565b602082019050919050565b6000602082019050818103600083015261339a8161335e565b9050919050565b7f4f776e61626c653a2063616c6c6572206973206e6f7420746865206f776e6572600082015250565b60006133d7602083612b7c565b91506133e2826133a1565b602082019050919050565b60006020820190508181036000830152613406816133ca565b9050919050565b600081905092915050565b7f19457468657265756d205369676e6564204d6573736167653a0a333200000000600082015250565b600061344e601c8361340d565b915061345982613418565b601c82019050919050565b6000819050919050565b6000819050919050565b61348961348482613464565b61346e565b82525050565b600061349a82613441565b91506134a68284613478565b60208201915081905092915050565b7f4e487b7100000000000000000000000000000000000000000000000000000000600052602160045260246000fd5b7f45434453413a20696e76616c6964207369676e61747572650000000000000000600082015250565b600061351a601883612b7c565b9150613525826134e4565b602082019050919050565b600060208201905081810360008301526135498161350d565b9050919050565b7f45434453413a20696e76616c6964207369676e6174757265206c656e67746800600082015250565b6000613586601f83612b7c565b915061359182613550565b602082019050919050565b600060208201905081810360008301526135b581613579565b9050919050565b7f45434453413a20696e76616c6964207369676e6174757265202773272076616c60008201527f7565000000000000000000000000000000000000000000000000000000000000602082015250565b6000613618602283612b7c565b9150613623826135bc565b604082019050919050565b600060208201905081810360008301526136478161360b565b9050919050565b7f45434453413a20696e76616c6964207369676e6174757265202776272076616c60008201527f7565000000000000000000000000000000000000000000000000000000000000602082015250565b60006136aa602283612b7c565b91506136b58261364e565b604082019050919050565b600060208201905081810360008301526136d98161369d565b9050919050565b6136e981613464565b82525050565b600060ff82169050919050565b613705816136ef565b82525050565b600060808201905061372060008301876136e0565b61372d60208301866136fc565b61373a60408301856136e0565b61374760608301846136e0565b9594505050505056fea2646970667358221220a28c7fa970cb97f9fa18561799e2997a6b509ff796960861f47fe178b56aa6d164736f6c634300080d0033",
  "immutableReferences": {},
  "source": "// SPDX-License-Identifier: MIT\r\npragma solidity ^0.8.13;\r\n\r\nimport \"@openzeppelin/contracts/access/Ownable.sol\";\r\nimport \"@openzeppelin/contracts/token/ERC721/IERC721.sol\";\r\nimport \"@openzeppelin/contracts/utils/cryptography/ECDSA.sol\";\r\n\r\ncontract IpsumOfLOREMNFT is Ownable {\r\n    struct Ipsum {\r\n        address creator;\r\n        bool nsfw;\r\n        bool ownerflip;\r\n        bool adminflip;\r\n        string ipsumMetadataURI;\r\n    }\r\n\r\n    mapping(address => mapping(uint256 => Ipsum[])) public tokenIpsum;\r\n    mapping(address => bool) public IpsumTokenContract;\r\n \r\n    event IpsumAdded(address tokenContract, uint256 tokenId, uint256 ipsumIdx);\r\n    event IpsumUpdated(address tokenContract, uint256 tokenId, uint256 ipsumIdx);\r\n    event IpsumUpdatednsfw(address tokenContract, uint256 tokenId, uint256 ipsumIdx);\r\n\r\n    modifier onlyAllowedTokenContract(address tokenContract) {\r\n        require(IpsumTokenContract[tokenContract],\"tokenContract is not on the allowlist\");\r\n        _;\r\n    }\r\n\r\n    address public adminSigner;\r\n \r\n    constructor(){}\r\n\r\n    function numIpsum(address tokenContract, uint256 tokenId) public view returns (uint256){\r\n        return tokenIpsum[tokenContract][tokenId].length;\r\n    }\r\n\r\n    function IpsumFor(address tokenContract, uint256 tokenId) public view returns (Ipsum[] memory){\r\n        return tokenIpsum[tokenContract][tokenId];\r\n    }\r\n\r\n    function IpsumAt(address tokenContract, uint256 tokenId, uint256 startIdx, uint256 endIdx\r\n    ) public view returns (Ipsum[] memory) {\r\n        Ipsum[] memory l = new Ipsum[](endIdx - startIdx + 1);\r\n        uint256 length = endIdx - startIdx + 1;\r\n\r\n        for (uint256 i = 0; i < length; i++) {\r\n            l[i] = tokenIpsum[tokenContract][tokenId][startIdx + i];\r\n        }\r\n        return l;\r\n    }\r\n\r\n    function isCCOtoken(uint256 tokenId) public pure returns(bool){\r\n        return tokenId>=9900 && tokenId<=9999;\r\n\r\n    }\r\n\r\n    function isownerOf(address tokenContract, address tokenOwner,  uint256 tokenId) public view onlyAllowedTokenContract(tokenContract) returns(bool){\r\n        return IERC721(tokenContract).ownerOf(tokenId) == tokenOwner;\r\n    }\r\n\r\n    function addIpsum(address tokenContract, uint256 tokenId, string memory ipsumMetadataURI) \r\n    public onlyAllowedTokenContract(tokenContract) {\r\n        address tokenOwner = IERC721(tokenContract).ownerOf(tokenId);\r\n        require(tokenOwner == _msgSender() || isCCOtoken(tokenId), \"not token owner\");\r\n        tokenIpsum[tokenContract][tokenId].push(\r\n            Ipsum(_msgSender(), false, true, true, ipsumMetadataURI)\r\n            );\r\n        emit IpsumAdded(tokenContract, tokenId, tokenIpsum[tokenContract][tokenId].length - 1);\r\n    }\r\n\r\n    function addIpsumWithSignature(bytes memory signature, address tokenContract, uint256 tokenId, uint256 ipsumIdx, string memory ipsumMetadataURI\r\n    ) public onlyAllowedTokenContract(tokenContract) {\r\n\r\n        bytes32 messageDigest = keccak256(abi.encodePacked(tokenContract, _msgSender(), tokenId, ipsumIdx));\r\n        bytes32 ethHashMessage = ECDSA.toEthSignedMessageHash(messageDigest);\r\n        address signer = ECDSA.recover(ethHashMessage, signature);\r\n        require(signer == adminSigner,\"auth fail\");\r\n        require(numIpsum(tokenContract, tokenId) == ipsumIdx,\"ipsumIdx does not exist\");\r\n\r\n        tokenIpsum[tokenContract][tokenId].push(\r\n            Ipsum(_msgSender(), false, true, true, ipsumMetadataURI)\r\n        );\r\n        emit IpsumAdded(tokenContract, tokenId, tokenIpsum[tokenContract][tokenId].length - 1);\r\n    }\r\n\r\n    function updateIpsumMetadataURI(\r\n        address tokenContract,\r\n        uint256 tokenId,\r\n        uint256 ipsumIdx,\r\n        string memory newipsumMetadataURI\r\n    ) public onlyAllowedTokenContract(tokenContract) {\r\n\r\n        address tokenOwner = IERC721(tokenContract).ownerOf(tokenId);\r\n        require(tokenIpsum[tokenContract][tokenId][ipsumIdx].creator == _msgSender(), \"not ipsumIdx creator\");\r\n        require(tokenOwner == _msgSender() || isCCOtoken(tokenId), \"not token owner\");\r\n        tokenIpsum[tokenContract][tokenId][ipsumIdx].ipsumMetadataURI = newipsumMetadataURI;\r\n        emit IpsumUpdated(tokenContract, tokenId, ipsumIdx);\r\n    }\r\n    function updateIpsumnsfw(\r\n        address tokenContract,\r\n        uint256 tokenId,\r\n        uint256 ipsumIdx,\r\n        bool newnsfw)\r\n        public onlyAllowedTokenContract(tokenContract) {\r\n\r\n        // address tokenOwner = IERC721(tokenContract).ownerOf(tokenId);\r\n        // require(tokenOwner!=address(0), \"token does not exist\");\r\n        require(ipsumIdx < numIpsum(tokenContract, tokenId)  ,\"ipsumidx does not exist\");\r\n        tokenIpsum[tokenContract][tokenId][ipsumIdx].nsfw = newnsfw;\r\n        emit IpsumUpdatednsfw(tokenContract, tokenId, ipsumIdx);\r\n    }\r\n    function updateIpsumOwnerflip(\r\n        address tokenContract,\r\n        uint256 tokenId,\r\n        uint256 ipsumIdx,\r\n        bool newownerflip\r\n    ) public onlyAllowedTokenContract(tokenContract) {\r\n\r\n        address tokenOwner = IERC721(tokenContract).ownerOf(tokenId);\r\n        require(tokenOwner == _msgSender() || owner() == _msgSender(), \"not token owner\");\r\n        tokenIpsum[tokenContract][tokenId][ipsumIdx].ownerflip = newownerflip;\r\n        emit IpsumUpdated(tokenContract, tokenId, ipsumIdx);\r\n    }\r\n    \r\n    //onlyOwner\r\n    function updateIpsumAdminflip(\r\n        address tokenContract,\r\n        uint256 tokenId,\r\n        uint256 ipsumIdx,\r\n        bool newadminflip\r\n    ) public onlyAllowedTokenContract(tokenContract) onlyOwner {\r\n\r\n        tokenIpsum[tokenContract][tokenId][ipsumIdx].adminflip = newadminflip;\r\n        emit IpsumUpdated(tokenContract, tokenId, ipsumIdx);\r\n    }\r\n\r\n    function setIpsumTokenContract(address tokenContract, bool isListed) public onlyOwner{\r\n        IpsumTokenContract[tokenContract] = isListed;\r\n    }\r\n\r\n    function setSigner(address newSigner) external onlyOwner {\r\n        adminSigner = newSigner;\r\n    }\r\n}",
  "sourcePath": "C:/Users/chiku/Documents/contract/loremprod/contracts/IpsumOfLOREMNFT.sol",
  "compiler": {
    "name": "solc",
    "version": "0.8.13+commit.abaa5c0e.Emscripten.clang"
  },
  "schemaVersion": "3.3.4",
  "updatedAt": "2022-08-24T10:09:04.414Z",
  "networkType": "ethereum",
  "devdoc": {
    "kind": "dev",
    "methods": {
      "owner()": {
        "details": "Returns the address of the current owner."
      },
      "renounceOwnership()": {
        "details": "Leaves the contract without owner. It will not be possible to call `onlyOwner` functions anymore. Can only be called by the current owner. NOTE: Renouncing ownership will leave the contract without an owner, thereby removing any functionality that is only available to the owner."
      },
      "transferOwnership(address)": {
        "details": "Transfers ownership of the contract to a new account (`newOwner`). Can only be called by the current owner."
      }
    },
    "version": 1
  },
  "userdoc": {
    "kind": "user",
    "methods": {},
    "version": 1
  }
}