{
  "contractName": "LOREMNFT",
  "abi": [
    {
      "inputs": [],
      "stateMutability": "nonpayable",
      "type": "constructor"
    },
    {
      "inputs": [],
      "name": "ApprovalCallerNotOwnerNorApproved",
      "type": "error"
    },
    {
      "inputs": [],
      "name": "ApprovalQueryForNonexistentToken",
      "type": "error"
    },
    {
      "inputs": [],
      "name": "ApproveToCaller",
      "type": "error"
    },
    {
      "inputs": [],
      "name": "BalanceQueryForZeroAddress",
      "type": "error"
    },
    {
      "inputs": [],
      "name": "InvalidQueryRange",
      "type": "error"
    },
    {
      "inputs": [],
      "name": "MintERC2309QuantityExceedsLimit",
      "type": "error"
    },
    {
      "inputs": [],
      "name": "MintToZeroAddress",
      "type": "error"
    },
    {
      "inputs": [],
      "name": "MintZeroQuantity",
      "type": "error"
    },
    {
      "inputs": [],
      "name": "OwnerQueryForNonexistentToken",
      "type": "error"
    },
    {
      "inputs": [],
      "name": "OwnershipNotInitializedForExtraData",
      "type": "error"
    },
    {
      "inputs": [],
      "name": "TransferCallerNotOwnerNorApproved",
      "type": "error"
    },
    {
      "inputs": [],
      "name": "TransferFromIncorrectOwner",
      "type": "error"
    },
    {
      "inputs": [],
      "name": "TransferToNonERC721ReceiverImplementer",
      "type": "error"
    },
    {
      "inputs": [],
      "name": "TransferToZeroAddress",
      "type": "error"
    },
    {
      "inputs": [],
      "name": "URIQueryForNonexistentToken",
      "type": "error"
    },
    {
      "anonymous": false,
      "inputs": [
        {
          "indexed": true,
          "internalType": "address",
          "name": "owner",
          "type": "address"
        },
        {
          "indexed": true,
          "internalType": "address",
          "name": "approved",
          "type": "address"
        },
        {
          "indexed": true,
          "internalType": "uint256",
          "name": "tokenId",
          "type": "uint256"
        }
      ],
      "name": "Approval",
      "type": "event"
    },
    {
      "anonymous": false,
      "inputs": [
        {
          "indexed": true,
          "internalType": "address",
          "name": "owner",
          "type": "address"
        },
        {
          "indexed": true,
          "internalType": "address",
          "name": "operator",
          "type": "address"
        },
        {
          "indexed": false,
          "internalType": "bool",
          "name": "approved",
          "type": "bool"
        }
      ],
      "name": "ApprovalForAll",
      "type": "event"
    },
    {
      "anonymous": false,
      "inputs": [
        {
          "indexed": true,
          "internalType": "uint256",
          "name": "fromTokenId",
          "type": "uint256"
        },
        {
          "indexed": false,
          "internalType": "uint256",
          "name": "toTokenId",
          "type": "uint256"
        },
        {
          "indexed": true,
          "internalType": "address",
          "name": "from",
          "type": "address"
        },
        {
          "indexed": true,
          "internalType": "address",
          "name": "to",
          "type": "address"
        }
      ],
      "name": "ConsecutiveTransfer",
      "type": "event"
    },
    {
      "anonymous": false,
      "inputs": [
        {
          "indexed": true,
          "internalType": "address",
          "name": "previousOwner",
          "type": "address"
        },
        {
          "indexed": true,
          "internalType": "address",
          "name": "newOwner",
          "type": "address"
        }
      ],
      "name": "OwnershipTransferred",
      "type": "event"
    },
    {
      "anonymous": false,
      "inputs": [
        {
          "indexed": true,
          "internalType": "address",
          "name": "from",
          "type": "address"
        },
        {
          "indexed": true,
          "internalType": "address",
          "name": "to",
          "type": "address"
        },
        {
          "indexed": true,
          "internalType": "uint256",
          "name": "tokenId",
          "type": "uint256"
        }
      ],
      "name": "Transfer",
      "type": "event"
    },
    {
      "inputs": [],
      "name": "_adminSigner",
      "outputs": [
        {
          "internalType": "address",
          "name": "",
          "type": "address"
        }
      ],
      "stateMutability": "view",
      "type": "function"
    },
    {
      "inputs": [],
      "name": "_baseTokenURI",
      "outputs": [
        {
          "internalType": "string",
          "name": "",
          "type": "string"
        }
      ],
      "stateMutability": "view",
      "type": "function"
    },
    {
      "inputs": [
        {
          "internalType": "address",
          "name": "",
          "type": "address"
        }
      ],
      "name": "alMinted",
      "outputs": [
        {
          "internalType": "uint256",
          "name": "",
          "type": "uint256"
        }
      ],
      "stateMutability": "view",
      "type": "function"
    },
    {
      "inputs": [
        {
          "internalType": "address",
          "name": "to",
          "type": "address"
        },
        {
          "internalType": "uint256",
          "name": "tokenId",
          "type": "uint256"
        }
      ],
      "name": "approve",
      "outputs": [],
      "stateMutability": "nonpayable",
      "type": "function"
    },
    {
      "inputs": [
        {
          "internalType": "uint256",
          "name": "",
          "type": "uint256"
        },
        {
          "internalType": "address",
          "name": "",
          "type": "address"
        }
      ],
      "name": "authorizedMinteds",
      "outputs": [
        {
          "internalType": "uint256",
          "name": "",
          "type": "uint256"
        }
      ],
      "stateMutability": "view",
      "type": "function"
    },
    {
      "inputs": [
        {
          "internalType": "address",
          "name": "owner",
          "type": "address"
        }
      ],
      "name": "balanceOf",
      "outputs": [
        {
          "internalType": "uint256",
          "name": "",
          "type": "uint256"
        }
      ],
      "stateMutability": "view",
      "type": "function"
    },
    {
      "inputs": [
        {
          "internalType": "uint256",
          "name": "tokenId",
          "type": "uint256"
        }
      ],
      "name": "explicitOwnershipOf",
      "outputs": [
        {
          "components": [
            {
              "internalType": "address",
              "name": "addr",
              "type": "address"
            },
            {
              "internalType": "uint64",
              "name": "startTimestamp",
              "type": "uint64"
            },
            {
              "internalType": "bool",
              "name": "burned",
              "type": "bool"
            },
            {
              "internalType": "uint24",
              "name": "extraData",
              "type": "uint24"
            }
          ],
          "internalType": "struct IERC721A.TokenOwnership",
          "name": "",
          "type": "tuple"
        }
      ],
      "stateMutability": "view",
      "type": "function"
    },
    {
      "inputs": [
        {
          "internalType": "uint256[]",
          "name": "tokenIds",
          "type": "uint256[]"
        }
      ],
      "name": "explicitOwnershipsOf",
      "outputs": [
        {
          "components": [
            {
              "internalType": "address",
              "name": "addr",
              "type": "address"
            },
            {
              "internalType": "uint64",
              "name": "startTimestamp",
              "type": "uint64"
            },
            {
              "internalType": "bool",
              "name": "burned",
              "type": "bool"
            },
            {
              "internalType": "uint24",
              "name": "extraData",
              "type": "uint24"
            }
          ],
          "internalType": "struct IERC721A.TokenOwnership[]",
          "name": "",
          "type": "tuple[]"
        }
      ],
      "stateMutability": "view",
      "type": "function"
    },
    {
      "inputs": [
        {
          "internalType": "uint256",
          "name": "tokenId",
          "type": "uint256"
        }
      ],
      "name": "getApproved",
      "outputs": [
        {
          "internalType": "address",
          "name": "",
          "type": "address"
        }
      ],
      "stateMutability": "view",
      "type": "function"
    },
    {
      "inputs": [
        {
          "internalType": "address",
          "name": "owner",
          "type": "address"
        },
        {
          "internalType": "address",
          "name": "operator",
          "type": "address"
        }
      ],
      "name": "isApprovedForAll",
      "outputs": [
        {
          "internalType": "bool",
          "name": "",
          "type": "bool"
        }
      ],
      "stateMutability": "view",
      "type": "function"
    },
    {
      "inputs": [],
      "name": "maxPerAddress",
      "outputs": [
        {
          "internalType": "uint8",
          "name": "",
          "type": "uint8"
        }
      ],
      "stateMutability": "view",
      "type": "function"
    },
    {
      "inputs": [],
      "name": "maxcollectionSize",
      "outputs": [
        {
          "internalType": "uint256",
          "name": "",
          "type": "uint256"
        }
      ],
      "stateMutability": "view",
      "type": "function"
    },
    {
      "inputs": [],
      "name": "name",
      "outputs": [
        {
          "internalType": "string",
          "name": "",
          "type": "string"
        }
      ],
      "stateMutability": "view",
      "type": "function"
    },
    {
      "inputs": [],
      "name": "owner",
      "outputs": [
        {
          "internalType": "address",
          "name": "",
          "type": "address"
        }
      ],
      "stateMutability": "view",
      "type": "function"
    },
    {
      "inputs": [
        {
          "internalType": "uint256",
          "name": "tokenId",
          "type": "uint256"
        }
      ],
      "name": "ownerOf",
      "outputs": [
        {
          "internalType": "address",
          "name": "",
          "type": "address"
        }
      ],
      "stateMutability": "view",
      "type": "function"
    },
    {
      "inputs": [
        {
          "internalType": "address",
          "name": "",
          "type": "address"
        }
      ],
      "name": "publicMinted",
      "outputs": [
        {
          "internalType": "uint256",
          "name": "",
          "type": "uint256"
        }
      ],
      "stateMutability": "view",
      "type": "function"
    },
    {
      "inputs": [],
      "name": "quantityForMint",
      "outputs": [
        {
          "internalType": "uint256",
          "name": "",
          "type": "uint256"
        }
      ],
      "stateMutability": "view",
      "type": "function"
    },
    {
      "inputs": [],
      "name": "renounceOwnership",
      "outputs": [],
      "stateMutability": "nonpayable",
      "type": "function"
    },
    {
      "inputs": [
        {
          "internalType": "uint256",
          "name": "_tokenId",
          "type": "uint256"
        },
        {
          "internalType": "uint256",
          "name": "_salePrice",
          "type": "uint256"
        }
      ],
      "name": "royaltyInfo",
      "outputs": [
        {
          "internalType": "address",
          "name": "",
          "type": "address"
        },
        {
          "internalType": "uint256",
          "name": "",
          "type": "uint256"
        }
      ],
      "stateMutability": "view",
      "type": "function"
    },
    {
      "inputs": [
        {
          "internalType": "address",
          "name": "from",
          "type": "address"
        },
        {
          "internalType": "address",
          "name": "to",
          "type": "address"
        },
        {
          "internalType": "uint256",
          "name": "tokenId",
          "type": "uint256"
        }
      ],
      "name": "safeTransferFrom",
      "outputs": [],
      "stateMutability": "nonpayable",
      "type": "function"
    },
    {
      "inputs": [
        {
          "internalType": "address",
          "name": "from",
          "type": "address"
        },
        {
          "internalType": "address",
          "name": "to",
          "type": "address"
        },
        {
          "internalType": "uint256",
          "name": "tokenId",
          "type": "uint256"
        },
        {
          "internalType": "bytes",
          "name": "_data",
          "type": "bytes"
        }
      ],
      "name": "safeTransferFrom",
      "outputs": [],
      "stateMutability": "nonpayable",
      "type": "function"
    },
    {
      "inputs": [],
      "name": "salesStage",
      "outputs": [
        {
          "internalType": "uint8",
          "name": "",
          "type": "uint8"
        }
      ],
      "stateMutability": "view",
      "type": "function"
    },
    {
      "inputs": [
        {
          "internalType": "address",
          "name": "operator",
          "type": "address"
        },
        {
          "internalType": "bool",
          "name": "approved",
          "type": "bool"
        }
      ],
      "name": "setApprovalForAll",
      "outputs": [],
      "stateMutability": "nonpayable",
      "type": "function"
    },
    {
      "inputs": [],
      "name": "symbol",
      "outputs": [
        {
          "internalType": "string",
          "name": "",
          "type": "string"
        }
      ],
      "stateMutability": "view",
      "type": "function"
    },
    {
      "inputs": [],
      "name": "tokenPrice",
      "outputs": [
        {
          "internalType": "uint256",
          "name": "",
          "type": "uint256"
        }
      ],
      "stateMutability": "view",
      "type": "function"
    },
    {
      "inputs": [
        {
          "internalType": "uint256",
          "name": "tokenId",
          "type": "uint256"
        }
      ],
      "name": "tokenURI",
      "outputs": [
        {
          "internalType": "string",
          "name": "",
          "type": "string"
        }
      ],
      "stateMutability": "view",
      "type": "function"
    },
    {
      "inputs": [
        {
          "internalType": "address",
          "name": "owner",
          "type": "address"
        }
      ],
      "name": "tokensOfOwner",
      "outputs": [
        {
          "internalType": "uint256[]",
          "name": "",
          "type": "uint256[]"
        }
      ],
      "stateMutability": "view",
      "type": "function"
    },
    {
      "inputs": [
        {
          "internalType": "address",
          "name": "owner",
          "type": "address"
        },
        {
          "internalType": "uint256",
          "name": "start",
          "type": "uint256"
        },
        {
          "internalType": "uint256",
          "name": "stop",
          "type": "uint256"
        }
      ],
      "name": "tokensOfOwnerIn",
      "outputs": [
        {
          "internalType": "uint256[]",
          "name": "",
          "type": "uint256[]"
        }
      ],
      "stateMutability": "view",
      "type": "function"
    },
    {
      "inputs": [],
      "name": "totalSupply",
      "outputs": [
        {
          "internalType": "uint256",
          "name": "",
          "type": "uint256"
        }
      ],
      "stateMutability": "view",
      "type": "function"
    },
    {
      "inputs": [
        {
          "internalType": "address",
          "name": "from",
          "type": "address"
        },
        {
          "internalType": "address",
          "name": "to",
          "type": "address"
        },
        {
          "internalType": "uint256",
          "name": "tokenId",
          "type": "uint256"
        }
      ],
      "name": "transferFrom",
      "outputs": [],
      "stateMutability": "nonpayable",
      "type": "function"
    },
    {
      "inputs": [
        {
          "internalType": "address",
          "name": "newOwner",
          "type": "address"
        }
      ],
      "name": "transferOwnership",
      "outputs": [],
      "stateMutability": "nonpayable",
      "type": "function"
    },
    {
      "inputs": [
        {
          "internalType": "uint256",
          "name": "quantity",
          "type": "uint256"
        },
        {
          "internalType": "uint256",
          "name": "allowquantity",
          "type": "uint256"
        },
        {
          "internalType": "bytes",
          "name": "signature",
          "type": "bytes"
        }
      ],
      "name": "alMint",
      "outputs": [],
      "stateMutability": "payable",
      "type": "function"
    },
    {
      "inputs": [
        {
          "internalType": "uint256",
          "name": "quantity",
          "type": "uint256"
        },
        {
          "internalType": "uint256",
          "name": "allowquantity",
          "type": "uint256"
        },
        {
          "internalType": "bytes",
          "name": "signature",
          "type": "bytes"
        }
      ],
      "name": "authorizedMint",
      "outputs": [],
      "stateMutability": "payable",
      "type": "function"
    },
    {
      "inputs": [
        {
          "internalType": "uint256",
          "name": "quantity",
          "type": "uint256"
        }
      ],
      "name": "publicMint",
      "outputs": [],
      "stateMutability": "payable",
      "type": "function"
    },
    {
      "inputs": [],
      "name": "withdraw",
      "outputs": [],
      "stateMutability": "nonpayable",
      "type": "function"
    },
    {
      "inputs": [
        {
          "internalType": "address[]",
          "name": "to_",
          "type": "address[]"
        },
        {
          "internalType": "uint256",
          "name": "quantity_",
          "type": "uint256"
        }
      ],
      "name": "teamMint",
      "outputs": [],
      "stateMutability": "nonpayable",
      "type": "function"
    },
    {
      "inputs": [
        {
          "internalType": "uint256",
          "name": "newquantityForMint",
          "type": "uint256"
        }
      ],
      "name": "setQuantityForMint",
      "outputs": [],
      "stateMutability": "nonpayable",
      "type": "function"
    },
    {
      "inputs": [
        {
          "internalType": "uint256",
          "name": "newPrice",
          "type": "uint256"
        }
      ],
      "name": "setPrice",
      "outputs": [],
      "stateMutability": "nonpayable",
      "type": "function"
    },
    {
      "inputs": [
        {
          "internalType": "uint8",
          "name": "newmaxPerAddress",
          "type": "uint8"
        }
      ],
      "name": "setMaxPerAddress",
      "outputs": [],
      "stateMutability": "nonpayable",
      "type": "function"
    },
    {
      "inputs": [
        {
          "internalType": "address",
          "name": "newSigner",
          "type": "address"
        }
      ],
      "name": "setSigner",
      "outputs": [],
      "stateMutability": "nonpayable",
      "type": "function"
    },
    {
      "inputs": [
        {
          "internalType": "string",
          "name": "newURI",
          "type": "string"
        }
      ],
      "name": "setBaseURI",
      "outputs": [],
      "stateMutability": "nonpayable",
      "type": "function"
    },
    {
      "inputs": [
        {
          "internalType": "uint8",
          "name": "newSalesStage",
          "type": "uint8"
        }
      ],
      "name": "setSalesStage",
      "outputs": [],
      "stateMutability": "nonpayable",
      "type": "function"
    },
    {
      "inputs": [
        {
          "internalType": "address",
          "name": "receiver",
          "type": "address"
        },
        {
          "internalType": "uint96",
          "name": "feeNumerator",
          "type": "uint96"
        }
      ],
      "name": "setDefaultRoyalty",
      "outputs": [],
      "stateMutability": "nonpayable",
      "type": "function"
    },
    {
      "inputs": [
        {
          "internalType": "bytes4",
          "name": "interfaceId",
          "type": "bytes4"
        }
      ],
      "name": "supportsInterface",
      "outputs": [
        {
          "internalType": "bool",
          "name": "",
          "type": "bool"
        }
      ],
      "stateMutability": "view",
      "type": "function"
    }
  ],
  "bytecode": "0x6080604052612710600d556001600e60006101000a81548160ff021916908360ff1602179055506126ac600f556000601060006101000a81548160ff021916908360ff1602179055503480156200005557600080fd5b506040518060400160405280600881526020017f4c4f52454d4e46540000000000000000000000000000000000000000000000008152506040518060400160405280600581526020017f4c4f52454d0000000000000000000000000000000000000000000000000000008152508160029080519060200190620000da9291906200020d565b508060039080519060200190620000f39291906200020d565b50620001046200013a60201b60201c565b6000819055505050600160088190555062000134620001286200013f60201b60201c565b6200014760201b60201c565b62000321565b600090565b600033905090565b6000600b60009054906101000a900473ffffffffffffffffffffffffffffffffffffffff16905081600b60006101000a81548173ffffffffffffffffffffffffffffffffffffffff021916908373ffffffffffffffffffffffffffffffffffffffff1602179055508173ffffffffffffffffffffffffffffffffffffffff168173ffffffffffffffffffffffffffffffffffffffff167f8be0079c531659141344cd1fd0a4f28419497f9722a3daafe3b4186f6b6457e060405160405180910390a35050565b8280546200021b90620002ec565b90600052602060002090601f0160209004810192826200023f57600085556200028b565b82601f106200025a57805160ff19168380011785556200028b565b828001600101855582156200028b579182015b828111156200028a5782518255916020019190600101906200026d565b5b5090506200029a91906200029e565b5090565b5b80821115620002b95760008160009055506001016200029f565b5090565b7f4e487b7100000000000000000000000000000000000000000000000000000000600052602260045260246000fd5b600060028204905060018216806200030557607f821691505b6020821081036200031b576200031a620002bd565b5b50919050565b61549680620003316000396000f3fe6080604052600436106102675760003560e01c80636583c2d61161014457806399a2557a116100b6578063c87b56dd1161007a578063c87b56dd1461093a578063cfc86f7b14610977578063d1eae803146109a2578063e985e9c5146109cd578063f2dc824c14610a0a578063f2fde38b14610a3357610267565b806399a2557a14610852578063a22cb4651461088f578063b88d4fde146108b8578063c052f79e146108e1578063c23dc68f146108fd57610267565b80638343bce5116101085780638343bce51461072e5780638462151c1461076b578063864b77b6146107a85780638da5cb5b146107d357806391b7f5ed146107fe57806395d89b411461082757610267565b80636583c2d61461065d5780636c19e7831461068657806370a08231146106af578063715018a6146106ec5780637ff9b5961461070357610267565b80632a55205a116101dd57806342842e0e116101a157806342842e0e1461053d5780635168e54f1461056657806355f804b31461058f5780635bbb2177146105b85780636352211e146105f5578063639814e01461063257610267565b80632a55205a146104785780632aed990a146104b65780632db11544146104df5780633ccfd60b146104fb578063405a2fb91461051257610267565b80630cd1635d1161022f5780630cd1635d146103635780631015805b1461038e57806318160ddd146103cb57806321434421146103f657806323b872dd1461043357806327bbb9cb1461045c57610267565b806301ffc9a71461026c57806304634d8d146102a957806306fdde03146102d2578063081812fc146102fd578063095ea7b31461033a575b600080fd5b34801561027857600080fd5b50610293600480360381019061028e9190613a3e565b610a5c565b6040516102a09190613a86565b60405180910390f35b3480156102b557600080fd5b506102d060048036038101906102cb9190613b43565b610a7e565b005b3480156102de57600080fd5b506102e7610a94565b6040516102f49190613c1c565b60405180910390f35b34801561030957600080fd5b50610324600480360381019061031f9190613c74565b610b26565b6040516103319190613cb0565b60405180910390f35b34801561034657600080fd5b50610361600480360381019061035c9190613ccb565b610ba2565b005b34801561036f57600080fd5b50610378610ce3565b6040516103859190613d27565b60405180910390f35b34801561039a57600080fd5b506103b560048036038101906103b09190613d42565b610cf6565b6040516103c29190613d7e565b60405180910390f35b3480156103d757600080fd5b506103e0610d0e565b6040516103ed9190613d7e565b60405180910390f35b34801561040257600080fd5b5061041d60048036038101906104189190613d42565b610d25565b60405161042a9190613d7e565b60405180910390f35b34801561043f57600080fd5b5061045a60048036038101906104559190613d99565b610d3d565b005b61047660048036038101906104719190613e51565b61105f565b005b34801561048457600080fd5b5061049f600480360381019061049a9190613ec5565b61137d565b6040516104ad929190613f05565b60405180910390f35b3480156104c257600080fd5b506104dd60048036038101906104d89190613f5a565b611567565b005b6104f960048036038101906104f49190613c74565b61158d565b005b34801561050757600080fd5b506105106117f9565b005b34801561051e57600080fd5b50610527611850565b6040516105349190613cb0565b60405180910390f35b34801561054957600080fd5b50610564600480360381019061055f9190613d99565b611876565b005b34801561057257600080fd5b5061058d60048036038101906105889190613f5a565b611896565b005b34801561059b57600080fd5b506105b660048036038101906105b191906140b7565b6118bc565b005b3480156105c457600080fd5b506105df60048036038101906105da91906141c3565b6118de565b6040516105ec919061436f565b60405180910390f35b34801561060157600080fd5b5061061c60048036038101906106179190613c74565b61199f565b6040516106299190613cb0565b60405180910390f35b34801561063e57600080fd5b506106476119b1565b6040516106549190613d27565b60405180910390f35b34801561066957600080fd5b50610684600480360381019061067f9190613c74565b6119c4565b005b34801561069257600080fd5b506106ad60048036038101906106a89190613d42565b611a1b565b005b3480156106bb57600080fd5b506106d660048036038101906106d19190613d42565b611a67565b6040516106e39190613d7e565b60405180910390f35b3480156106f857600080fd5b50610701611b1f565b005b34801561070f57600080fd5b50610718611b33565b6040516107259190613d7e565b60405180910390f35b34801561073a57600080fd5b5061075560048036038101906107509190614391565b611b39565b6040516107629190613d7e565b60405180910390f35b34801561077757600080fd5b50610792600480360381019061078d9190613d42565b611b5e565b60405161079f919061448f565b60405180910390f35b3480156107b457600080fd5b506107bd611ca1565b6040516107ca9190613d7e565b60405180910390f35b3480156107df57600080fd5b506107e8611ca7565b6040516107f59190613cb0565b60405180910390f35b34801561080a57600080fd5b5061082560048036038101906108209190613c74565b611cd1565b005b34801561083357600080fd5b5061083c611ce3565b6040516108499190613c1c565b60405180910390f35b34801561085e57600080fd5b50610879600480360381019061087491906144b1565b611d75565b604051610886919061448f565b60405180910390f35b34801561089b57600080fd5b506108b660048036038101906108b19190614530565b611f81565b005b3480156108c457600080fd5b506108df60048036038101906108da9190614611565b6120f8565b005b6108fb60048036038101906108f69190613e51565b61216b565b005b34801561090957600080fd5b50610924600480360381019061091f9190613c74565b612413565b60405161093191906146e9565b60405180910390f35b34801561094657600080fd5b50610961600480360381019061095c9190613c74565b61247d565b60405161096e9190613c1c565b60405180910390f35b34801561098357600080fd5b5061098c61251b565b6040516109999190613c1c565b60405180910390f35b3480156109ae57600080fd5b506109b76125a9565b6040516109c49190613d7e565b60405180910390f35b3480156109d957600080fd5b506109f460048036038101906109ef9190614704565b6125af565b604051610a019190613a86565b60405180910390f35b348015610a1657600080fd5b50610a316004803603810190610a2c919061479a565b612643565b005b348015610a3f57600080fd5b50610a5a6004803603810190610a559190613d42565b612708565b005b6000610a678261278b565b80610a775750610a768261281d565b5b9050919050565b610a86612897565b610a908282612915565b5050565b606060028054610aa390614829565b80601f0160208091040260200160405190810160405280929190818152602001828054610acf90614829565b8015610b1c5780601f10610af157610100808354040283529160200191610b1c565b820191906000526020600020905b815481529060010190602001808311610aff57829003601f168201915b5050505050905090565b6000610b3182612aaa565b610b67576040517fcf4700e400000000000000000000000000000000000000000000000000000000815260040160405180910390fd5b6006600083815260200190815260200160002060009054906101000a900473ffffffffffffffffffffffffffffffffffffffff169050919050565b6000610bad8261199f565b90508073ffffffffffffffffffffffffffffffffffffffff16610bce612b09565b73ffffffffffffffffffffffffffffffffffffffff1614610c3157610bfa81610bf5612b09565b6125af565b610c30576040517fcfb3b94200000000000000000000000000000000000000000000000000000000815260040160405180910390fd5b5b826006600084815260200190815260200160002060006101000a81548173ffffffffffffffffffffffffffffffffffffffff021916908373ffffffffffffffffffffffffffffffffffffffff160217905550818373ffffffffffffffffffffffffffffffffffffffff168273ffffffffffffffffffffffffffffffffffffffff167f8c5be1e5ebec7d5bd14f71427d1e84f3dd0314c0f7b2291e5b200ac8c7c3b92560405160405180910390a4505050565b601060009054906101000a900460ff1681565b60126020528060005260406000206000915090505481565b6000610d18612b11565b6001546000540303905090565b60116020528060005260406000206000915090505481565b6000610d4882612b16565b90508373ffffffffffffffffffffffffffffffffffffffff168173ffffffffffffffffffffffffffffffffffffffff1614610daf576040517fa114810000000000000000000000000000000000000000000000000000000000815260040160405180910390fd5b600080610dbb84612be2565b91509150610dd18187610dcc612b09565b612c04565b610e1d57610de686610de1612b09565b6125af565b610e1c576040517f59c896be00000000000000000000000000000000000000000000000000000000815260040160405180910390fd5b5b600073ffffffffffffffffffffffffffffffffffffffff168573ffffffffffffffffffffffffffffffffffffffff1603610e83576040517fea553b3400000000000000000000000000000000000000000000000000000000815260040160405180910390fd5b610e908686866001612c48565b8015610e9b57600082555b600560008773ffffffffffffffffffffffffffffffffffffffff1673ffffffffffffffffffffffffffffffffffffffff168152602001908152602001600020600081546001900391905081905550600560008673ffffffffffffffffffffffffffffffffffffffff1673ffffffffffffffffffffffffffffffffffffffff1681526020019081526020016000206000815460010191905081905550610f6985610f45888887612c4e565b7c020000000000000000000000000000000000000000000000000000000017612c76565b600460008681526020019081526020016000208190555060007c0200000000000000000000000000000000000000000000000000000000841603610fef5760006001850190506000600460008381526020019081526020016000205403610fed576000548114610fec578360046000838152602001908152602001600020819055505b5b505b838573ffffffffffffffffffffffffffffffffffffffff168773ffffffffffffffffffffffffffffffffffffffff167fddf252ad1be2c89b69c2b068fc378daa952ba7f163c4a11628f55a4df523b3ef60405160405180910390a46110578686866001612ca1565b505050505050565b3373ffffffffffffffffffffffffffffffffffffffff163273ffffffffffffffffffffffffffffffffffffffff16146110cd576040517f08c379a00000000000000000000000000000000000000000000000000000000081526004016110c4906148a6565b60405180910390fd5b6001601060009054906101000a900460ff1660ff1611801561110157506009601060009054906101000a900460ff1660ff16105b611140576040517f08c379a000000000000000000000000000000000000000000000000000000000815260040161113790614912565b60405180910390fd5b61114c33848484612ca7565b61118b576040517f08c379a00000000000000000000000000000000000000000000000000000000081526004016111829061497e565b60405180910390fd5b600f5484611197610d0e565b6111a191906149cd565b11156111e2576040517f08c379a00000000000000000000000000000000000000000000000000000000081526004016111d990614a6f565b60405180910390fd5b600e60009054906101000a900460ff1660ff168460136000601060009054906101000a900460ff1660ff16815260200190815260200160002060003373ffffffffffffffffffffffffffffffffffffffff1673ffffffffffffffffffffffffffffffffffffffff1681526020019081526020016000205461126391906149cd565b11156112a4576040517f08c379a000000000000000000000000000000000000000000000000000000000815260040161129b90614adb565b60405180910390fd5b3484600c546112b39190614afb565b11156112f4576040517f08c379a00000000000000000000000000000000000000000000000000000000081526004016112eb90614ba1565b60405180910390fd5b6112fe3385612d95565b8360136000601060009054906101000a900460ff1660ff16815260200190815260200160002060003373ffffffffffffffffffffffffffffffffffffffff1673ffffffffffffffffffffffffffffffffffffffff168152602001908152602001600020600082825461137091906149cd565b9250508190555050505050565b6000806000600a60008681526020019081526020016000206040518060400160405290816000820160009054906101000a900473ffffffffffffffffffffffffffffffffffffffff1673ffffffffffffffffffffffffffffffffffffffff1673ffffffffffffffffffffffffffffffffffffffff1681526020016000820160149054906101000a90046bffffffffffffffffffffffff166bffffffffffffffffffffffff166bffffffffffffffffffffffff16815250509050600073ffffffffffffffffffffffffffffffffffffffff16816000015173ffffffffffffffffffffffffffffffffffffffff16036115125760096040518060400160405290816000820160009054906101000a900473ffffffffffffffffffffffffffffffffffffffff1673ffffffffffffffffffffffffffffffffffffffff1673ffffffffffffffffffffffffffffffffffffffff1681526020016000820160149054906101000a90046bffffffffffffffffffffffff166bffffffffffffffffffffffff166bffffffffffffffffffffffff168152505090505b600061151c612da3565b6bffffffffffffffffffffffff1682602001516bffffffffffffffffffffffff16866115489190614afb565b6115529190614bf0565b90508160000151819350935050509250929050565b61156f612897565b80601060006101000a81548160ff021916908360ff16021790555050565b3373ffffffffffffffffffffffffffffffffffffffff163273ffffffffffffffffffffffffffffffffffffffff16146115fb576040517f08c379a00000000000000000000000000000000000000000000000000000000081526004016115f2906148a6565b60405180910390fd5b6009601060009054906101000a900460ff1660ff1614611650576040517f08c379a000000000000000000000000000000000000000000000000000000000815260040161164790614912565b60405180910390fd5b600e60009054906101000a900460ff1660ff1681601260003373ffffffffffffffffffffffffffffffffffffffff1673ffffffffffffffffffffffffffffffffffffffff168152602001908152602001600020546116ae91906149cd565b11156116ef576040517f08c379a00000000000000000000000000000000000000000000000000000000081526004016116e690614adb565b60405180910390fd5b600f54816116fb610d0e565b61170591906149cd565b1115611746576040517f08c379a000000000000000000000000000000000000000000000000000000000815260040161173d90614a6f565b60405180910390fd5b3481600c546117559190614afb565b1115611796576040517f08c379a000000000000000000000000000000000000000000000000000000000815260040161178d90614ba1565b60405180910390fd5b6117a03382612d95565b80601260003373ffffffffffffffffffffffffffffffffffffffff1673ffffffffffffffffffffffffffffffffffffffff16815260200190815260200160002060008282546117ef91906149cd565b9250508190555050565b611801612897565b60004790503373ffffffffffffffffffffffffffffffffffffffff166108fc829081150290604051600060405180830381858888f1935050505015801561184c573d6000803e3d6000fd5b5050565b601560009054906101000a900473ffffffffffffffffffffffffffffffffffffffff1681565b611891838383604051806020016040528060008152506120f8565b505050565b61189e612897565b80600e60006101000a81548160ff021916908360ff16021790555050565b6118c4612897565b80601490805190602001906118da9291906138e0565b5050565b606060008251905060008167ffffffffffffffff81111561190257611901613f8c565b5b60405190808252806020026020018201604052801561193b57816020015b611928613966565b8152602001906001900390816119205790505b50905060005b8281146119945761196b85828151811061195e5761195d614c21565b5b6020026020010151612413565b82828151811061197e5761197d614c21565b5b6020026020010181905250806001019050611941565b508092505050919050565b60006119aa82612b16565b9050919050565b600e60009054906101000a900460ff1681565b6119cc612897565b600d54811115611a11576040517f08c379a0000000000000000000000000000000000000000000000000000000008152600401611a0890614c9c565b60405180910390fd5b80600f8190555050565b611a23612897565b80601560006101000a81548173ffffffffffffffffffffffffffffffffffffffff021916908373ffffffffffffffffffffffffffffffffffffffff16021790555050565b60008073ffffffffffffffffffffffffffffffffffffffff168273ffffffffffffffffffffffffffffffffffffffff1603611ace576040517f8f4eb60400000000000000000000000000000000000000000000000000000000815260040160405180910390fd5b67ffffffffffffffff600560008473ffffffffffffffffffffffffffffffffffffffff1673ffffffffffffffffffffffffffffffffffffffff16815260200190815260200160002054169050919050565b611b27612897565b611b316000612dad565b565b600c5481565b6013602052816000526040600020602052806000526040600020600091509150505481565b60606000806000611b6e85611a67565b905060008167ffffffffffffffff811115611b8c57611b8b613f8c565b5b604051908082528060200260200182016040528015611bba5781602001602082028036833780820191505090505b509050611bc5613966565b6000611bcf612b11565b90505b838614611c9357611be281612e73565b91508160400151611c8857600073ffffffffffffffffffffffffffffffffffffffff16826000015173ffffffffffffffffffffffffffffffffffffffff1614611c2d57816000015194505b8773ffffffffffffffffffffffffffffffffffffffff168573ffffffffffffffffffffffffffffffffffffffff1603611c875780838780600101985081518110611c7a57611c79614c21565b5b6020026020010181815250505b5b806001019050611bd2565b508195505050505050919050565b600d5481565b6000600b60009054906101000a900473ffffffffffffffffffffffffffffffffffffffff16905090565b611cd9612897565b80600c8190555050565b606060038054611cf290614829565b80601f0160208091040260200160405190810160405280929190818152602001828054611d1e90614829565b8015611d6b5780601f10611d4057610100808354040283529160200191611d6b565b820191906000526020600020905b815481529060010190602001808311611d4e57829003601f168201915b5050505050905090565b6060818310611db0576040517f32c1995a00000000000000000000000000000000000000000000000000000000815260040160405180910390fd5b600080611dbb612e9e565b9050611dc5612b11565b851015611dd757611dd4612b11565b94505b80841115611de3578093505b6000611dee87611a67565b905084861015611e11576000868603905081811015611e0b578091505b50611e16565b600090505b60008167ffffffffffffffff811115611e3257611e31613f8c565b5b604051908082528060200260200182016040528015611e605781602001602082028036833780820191505090505b50905060008203611e775780945050505050611f7a565b6000611e8288612413565b905060008160400151611e9757816000015190505b60008990505b888114158015611ead5750848714155b15611f6c57611ebb81612e73565b92508260400151611f6157600073ffffffffffffffffffffffffffffffffffffffff16836000015173ffffffffffffffffffffffffffffffffffffffff1614611f0657826000015191505b8a73ffffffffffffffffffffffffffffffffffffffff168273ffffffffffffffffffffffffffffffffffffffff1603611f605780848880600101995081518110611f5357611f52614c21565b5b6020026020010181815250505b5b806001019050611e9d565b508583528296505050505050505b9392505050565b611f89612b09565b73ffffffffffffffffffffffffffffffffffffffff168273ffffffffffffffffffffffffffffffffffffffff1603611fed576040517fb06307db00000000000000000000000000000000000000000000000000000000815260040160405180910390fd5b8060076000611ffa612b09565b73ffffffffffffffffffffffffffffffffffffffff1673ffffffffffffffffffffffffffffffffffffffff16815260200190815260200160002060008473ffffffffffffffffffffffffffffffffffffffff1673ffffffffffffffffffffffffffffffffffffffff16815260200190815260200160002060006101000a81548160ff0219169083151502179055508173ffffffffffffffffffffffffffffffffffffffff166120a7612b09565b73ffffffffffffffffffffffffffffffffffffffff167f17307eab39ab6107e8899845ad3d59bd9653f200f220920489ca2b5937696c31836040516120ec9190613a86565b60405180910390a35050565b612103848484610d3d565b60008373ffffffffffffffffffffffffffffffffffffffff163b146121655761212e84848484612ea7565b612164576040517fd1a57ed600000000000000000000000000000000000000000000000000000000815260040160405180910390fd5b5b50505050565b3373ffffffffffffffffffffffffffffffffffffffff163273ffffffffffffffffffffffffffffffffffffffff16146121d9576040517f08c379a00000000000000000000000000000000000000000000000000000000081526004016121d0906148a6565b60405180910390fd5b6001601060009054906101000a900460ff1660ff161461222e576040517f08c379a000000000000000000000000000000000000000000000000000000000815260040161222590614912565b60405180910390fd5b61223a33848484612ca7565b612279576040517f08c379a00000000000000000000000000000000000000000000000000000000081526004016122709061497e565b60405180910390fd5b600f5484612285610d0e565b61228f91906149cd565b11156122d0576040517f08c379a00000000000000000000000000000000000000000000000000000000081526004016122c790614a6f565b60405180910390fd5b8284601160003373ffffffffffffffffffffffffffffffffffffffff1673ffffffffffffffffffffffffffffffffffffffff1681526020019081526020016000205461231c91906149cd565b111561235d576040517f08c379a000000000000000000000000000000000000000000000000000000000815260040161235490614adb565b60405180910390fd5b3484600c5461236c9190614afb565b11156123ad576040517f08c379a00000000000000000000000000000000000000000000000000000000081526004016123a490614ba1565b60405180910390fd5b6123b73385612d95565b83601160003373ffffffffffffffffffffffffffffffffffffffff1673ffffffffffffffffffffffffffffffffffffffff168152602001908152602001600020600082825461240691906149cd565b9250508190555050505050565b61241b613966565b612423613966565b61242b612b11565b83108061243f575061243b612e9e565b8310155b1561244d5780915050612478565b61245683612e73565b905080604001511561246b5780915050612478565b61247483612ff7565b9150505b919050565b606061248882612aaa565b6124be576040517fa14c4b5000000000000000000000000000000000000000000000000000000000815260040160405180910390fd5b60006124c8613017565b905060008151036124e85760405180602001604052806000815250612513565b806124f2846130a9565b604051602001612503929190614cf8565b6040516020818303038152906040525b915050919050565b6014805461252890614829565b80601f016020809104026020016040519081016040528092919081815260200182805461255490614829565b80156125a15780601f10612576576101008083540402835291602001916125a1565b820191906000526020600020905b81548152906001019060200180831161258457829003601f168201915b505050505081565b600f5481565b6000600760008473ffffffffffffffffffffffffffffffffffffffff1673ffffffffffffffffffffffffffffffffffffffff16815260200190815260200160002060008373ffffffffffffffffffffffffffffffffffffffff1673ffffffffffffffffffffffffffffffffffffffff16815260200190815260200160002060009054906101000a900460ff16905092915050565b61264b612897565b600d54818484905061265d9190614afb565b612665610d0e565b61266f91906149cd565b11156126b0576040517f08c379a00000000000000000000000000000000000000000000000000000000081526004016126a790614d68565b60405180910390fd5b60005b83839050811015612702576126ef8484838181106126d4576126d3614c21565b5b90506020020160208101906126e99190613d42565b83612d95565b80806126fa90614d88565b9150506126b3565b50505050565b612710612897565b600073ffffffffffffffffffffffffffffffffffffffff168173ffffffffffffffffffffffffffffffffffffffff160361277f576040517f08c379a000000000000000000000000000000000000000000000000000000000815260040161277690614e42565b60405180910390fd5b61278881612dad565b50565b60006301ffc9a760e01b827bffffffffffffffffffffffffffffffffffffffffffffffffffffffff191614806127e657506380ac58cd60e01b827bffffffffffffffffffffffffffffffffffffffffffffffffffffffff1916145b806128165750635b5e139f60e01b827bffffffffffffffffffffffffffffffffffffffffffffffffffffffff1916145b9050919050565b60007f2a55205a000000000000000000000000000000000000000000000000000000007bffffffffffffffffffffffffffffffffffffffffffffffffffffffff1916827bffffffffffffffffffffffffffffffffffffffffffffffffffffffff19161480612890575061288f82613103565b5b9050919050565b61289f61316d565b73ffffffffffffffffffffffffffffffffffffffff166128bd611ca7565b73ffffffffffffffffffffffffffffffffffffffff1614612913576040517f08c379a000000000000000000000000000000000000000000000000000000000815260040161290a90614eae565b60405180910390fd5b565b61291d612da3565b6bffffffffffffffffffffffff16816bffffffffffffffffffffffff16111561297b576040517f08c379a000000000000000000000000000000000000000000000000000000000815260040161297290614f40565b60405180910390fd5b600073ffffffffffffffffffffffffffffffffffffffff168273ffffffffffffffffffffffffffffffffffffffff16036129ea576040517f08c379a00000000000000000000000000000000000000000000000000000000081526004016129e190614fac565b60405180910390fd5b60405180604001604052808373ffffffffffffffffffffffffffffffffffffffff168152602001826bffffffffffffffffffffffff16815250600960008201518160000160006101000a81548173ffffffffffffffffffffffffffffffffffffffff021916908373ffffffffffffffffffffffffffffffffffffffff16021790555060208201518160000160146101000a8154816bffffffffffffffffffffffff02191690836bffffffffffffffffffffffff1602179055509050505050565b600081612ab5612b11565b11158015612ac4575060005482105b8015612b02575060007c0100000000000000000000000000000000000000000000000000000000600460008581526020019081526020016000205416145b9050919050565b600033905090565b600090565b60008082905080612b25612b11565b11612bab57600054811015612baa5760006004600083815260200190815260200160002054905060007c0100000000000000000000000000000000000000000000000000000000821603612ba8575b60008103612b9e576004600083600190039350838152602001908152602001600020549050612b74565b8092505050612bdd565b505b5b6040517fdf2d9b4200000000000000000000000000000000000000000000000000000000815260040160405180910390fd5b919050565b6000806000600690508360005280602052604060002092508254915050915091565b600073ffffffffffffffffffffffffffffffffffffffff8316925073ffffffffffffffffffffffffffffffffffffffff821691508382148383141790509392505050565b50505050565b60008060e883901c905060e8612c65868684613175565b62ffffff16901b9150509392505050565b600073ffffffffffffffffffffffffffffffffffffffff83169250814260a01b178317905092915050565b50505050565b6000808486604051602001612cbd929190615035565b6040516020818303038152906040528051906020012090506000612ce08261317e565b9050601560009054906101000a900473ffffffffffffffffffffffffffffffffffffffff1673ffffffffffffffffffffffffffffffffffffffff16612d7286868080601f016020809104026020016040519081016040528093929190818152602001838380828437600081840152601f19601f82011690508083019250505050505050836131ae90919063ffffffff16565b73ffffffffffffffffffffffffffffffffffffffff161492505050949350505050565b612d9f82826131d5565b5050565b6000612710905090565b6000600b60009054906101000a900473ffffffffffffffffffffffffffffffffffffffff16905081600b60006101000a81548173ffffffffffffffffffffffffffffffffffffffff021916908373ffffffffffffffffffffffffffffffffffffffff1602179055508173ffffffffffffffffffffffffffffffffffffffff168173ffffffffffffffffffffffffffffffffffffffff167f8be0079c531659141344cd1fd0a4f28419497f9722a3daafe3b4186f6b6457e060405160405180910390a35050565b612e7b613966565b612e9760046000848152602001908152602001600020546131f3565b9050919050565b60008054905090565b60008373ffffffffffffffffffffffffffffffffffffffff1663150b7a02612ecd612b09565b8786866040518563ffffffff1660e01b8152600401612eef94939291906150b6565b6020604051808303816000875af1925050508015612f2b57506040513d601f19601f82011682018060405250810190612f289190615117565b60015b612fa4573d8060008114612f5b576040519150601f19603f3d011682016040523d82523d6000602084013e612f60565b606091505b506000815103612f9c576040517fd1a57ed600000000000000000000000000000000000000000000000000000000815260040160405180910390fd5b805181602001fd5b63150b7a0260e01b7bffffffffffffffffffffffffffffffffffffffffffffffffffffffff1916817bffffffffffffffffffffffffffffffffffffffffffffffffffffffff191614915050949350505050565b612fff613966565b61301061300b83612b16565b6131f3565b9050919050565b60606014805461302690614829565b80601f016020809104026020016040519081016040528092919081815260200182805461305290614829565b801561309f5780601f106130745761010080835404028352916020019161309f565b820191906000526020600020905b81548152906001019060200180831161308257829003601f168201915b5050505050905090565b60606080604051019050806040528082600183039250600a81066030018353600a810490505b80156130ef57600183039250600a81066030018353600a810490506130cf565b508181036020830392508083525050919050565b60007f01ffc9a7000000000000000000000000000000000000000000000000000000007bffffffffffffffffffffffffffffffffffffffffffffffffffffffff1916827bffffffffffffffffffffffffffffffffffffffffffffffffffffffff1916149050919050565b600033905090565b60009392505050565b60008160405160200161319191906151bb565b604051602081830303815290604052805190602001209050919050565b60008060006131bd85856132a9565b915091506131ca8161332a565b819250505092915050565b6131ef8282604051806020016040528060008152506134f6565b5050565b6131fb613966565b81816000019073ffffffffffffffffffffffffffffffffffffffff16908173ffffffffffffffffffffffffffffffffffffffff168152505060a082901c816020019067ffffffffffffffff16908167ffffffffffffffff168152505060007c01000000000000000000000000000000000000000000000000000000008316141581604001901515908115158152505060e882901c816060019062ffffff16908162ffffff1681525050919050565b60008060418351036132ea5760008060006020860151925060408601519150606086015160001a90506132de87828585613593565b94509450505050613323565b604083510361331a57600080602085015191506040850151905061330f86838361369f565b935093505050613323565b60006002915091505b9250929050565b6000600481111561333e5761333d6151e1565b5b816004811115613351576133506151e1565b5b03156134f3576001600481111561336b5761336a6151e1565b5b81600481111561337e5761337d6151e1565b5b036133be576040517f08c379a00000000000000000000000000000000000000000000000000000000081526004016133b59061525c565b60405180910390fd5b600260048111156133d2576133d16151e1565b5b8160048111156133e5576133e46151e1565b5b03613425576040517f08c379a000000000000000000000000000000000000000000000000000000000815260040161341c906152c8565b60405180910390fd5b60036004811115613439576134386151e1565b5b81600481111561344c5761344b6151e1565b5b0361348c576040517f08c379a00000000000000000000000000000000000000000000000000000000081526004016134839061535a565b60405180910390fd5b60048081111561349f5761349e6151e1565b5b8160048111156134b2576134b16151e1565b5b036134f2576040517f08c379a00000000000000000000000000000000000000000000000000000000081526004016134e9906153ec565b60405180910390fd5b5b50565b61350083836136fe565b60008373ffffffffffffffffffffffffffffffffffffffff163b1461358e57600080549050600083820390505b6135406000868380600101945086612ea7565b613576576040517fd1a57ed600000000000000000000000000000000000000000000000000000000815260040160405180910390fd5b81811061352d57816000541461358b57600080fd5b50505b505050565b6000807f7fffffffffffffffffffffffffffffff5d576e7357a4501ddfe92f46681b20a08360001c11156135ce576000600391509150613696565b601b8560ff16141580156135e65750601c8560ff1614155b156135f8576000600491509150613696565b60006001878787876040516000815260200160405260405161361d949392919061541b565b6020604051602081039080840390855afa15801561363f573d6000803e3d6000fd5b505050602060405103519050600073ffffffffffffffffffffffffffffffffffffffff168173ffffffffffffffffffffffffffffffffffffffff160361368d57600060019250925050613696565b80600092509250505b94509492505050565b60008060007f7fffffffffffffffffffffffffffffffffffffffffffffffffffffffffffffff60001b841690506000601b60ff8660001c901c6136e291906149cd565b90506136f087828885613593565b935093505050935093915050565b600080549050600073ffffffffffffffffffffffffffffffffffffffff168373ffffffffffffffffffffffffffffffffffffffff160361376a576040517f2e07630000000000000000000000000000000000000000000000000000000000815260040160405180910390fd5b600082036137a4576040517fb562e8dd00000000000000000000000000000000000000000000000000000000815260040160405180910390fd5b6137b16000848385612c48565b600160406001901b178202600560008573ffffffffffffffffffffffffffffffffffffffff1673ffffffffffffffffffffffffffffffffffffffff16815260200190815260200160002060008282540192505081905550613828836138196000866000612c4e565b613822856138d0565b17612c76565b60046000838152602001908152602001600020819055506000819050600083830190505b818060010192508573ffffffffffffffffffffffffffffffffffffffff16600073ffffffffffffffffffffffffffffffffffffffff167fddf252ad1be2c89b69c2b068fc378daa952ba7f163c4a11628f55a4df523b3ef60405160405180910390a480821061384c578060008190555050506138cb6000848385612ca1565b505050565b60006001821460e11b9050919050565b8280546138ec90614829565b90600052602060002090601f01602090048101928261390e5760008555613955565b82601f1061392757805160ff1916838001178555613955565b82800160010185558215613955579182015b82811115613954578251825591602001919060010190613939565b5b50905061396291906139b5565b5090565b6040518060800160405280600073ffffffffffffffffffffffffffffffffffffffff168152602001600067ffffffffffffffff168152602001600015158152602001600062ffffff1681525090565b5b808211156139ce5760008160009055506001016139b6565b5090565b6000604051905090565b600080fd5b600080fd5b60007fffffffff0000000000000000000000000000000000000000000000000000000082169050919050565b613a1b816139e6565b8114613a2657600080fd5b50565b600081359050613a3881613a12565b92915050565b600060208284031215613a5457613a536139dc565b5b6000613a6284828501613a29565b91505092915050565b60008115159050919050565b613a8081613a6b565b82525050565b6000602082019050613a9b6000830184613a77565b92915050565b600073ffffffffffffffffffffffffffffffffffffffff82169050919050565b6000613acc82613aa1565b9050919050565b613adc81613ac1565b8114613ae757600080fd5b50565b600081359050613af981613ad3565b92915050565b60006bffffffffffffffffffffffff82169050919050565b613b2081613aff565b8114613b2b57600080fd5b50565b600081359050613b3d81613b17565b92915050565b60008060408385031215613b5a57613b596139dc565b5b6000613b6885828601613aea565b9250506020613b7985828601613b2e565b9150509250929050565b600081519050919050565b600082825260208201905092915050565b60005b83811015613bbd578082015181840152602081019050613ba2565b83811115613bcc576000848401525b50505050565b6000601f19601f8301169050919050565b6000613bee82613b83565b613bf88185613b8e565b9350613c08818560208601613b9f565b613c1181613bd2565b840191505092915050565b60006020820190508181036000830152613c368184613be3565b905092915050565b6000819050919050565b613c5181613c3e565b8114613c5c57600080fd5b50565b600081359050613c6e81613c48565b92915050565b600060208284031215613c8a57613c896139dc565b5b6000613c9884828501613c5f565b91505092915050565b613caa81613ac1565b82525050565b6000602082019050613cc56000830184613ca1565b92915050565b60008060408385031215613ce257613ce16139dc565b5b6000613cf085828601613aea565b9250506020613d0185828601613c5f565b9150509250929050565b600060ff82169050919050565b613d2181613d0b565b82525050565b6000602082019050613d3c6000830184613d18565b92915050565b600060208284031215613d5857613d576139dc565b5b6000613d6684828501613aea565b91505092915050565b613d7881613c3e565b82525050565b6000602082019050613d936000830184613d6f565b92915050565b600080600060608486031215613db257613db16139dc565b5b6000613dc086828701613aea565b9350506020613dd186828701613aea565b9250506040613de286828701613c5f565b9150509250925092565b600080fd5b600080fd5b600080fd5b60008083601f840112613e1157613e10613dec565b5b8235905067ffffffffffffffff811115613e2e57613e2d613df1565b5b602083019150836001820283011115613e4a57613e49613df6565b5b9250929050565b60008060008060608587031215613e6b57613e6a6139dc565b5b6000613e7987828801613c5f565b9450506020613e8a87828801613c5f565b935050604085013567ffffffffffffffff811115613eab57613eaa6139e1565b5b613eb787828801613dfb565b925092505092959194509250565b60008060408385031215613edc57613edb6139dc565b5b6000613eea85828601613c5f565b9250506020613efb85828601613c5f565b9150509250929050565b6000604082019050613f1a6000830185613ca1565b613f276020830184613d6f565b9392505050565b613f3781613d0b565b8114613f4257600080fd5b50565b600081359050613f5481613f2e565b92915050565b600060208284031215613f7057613f6f6139dc565b5b6000613f7e84828501613f45565b91505092915050565b600080fd5b7f4e487b7100000000000000000000000000000000000000000000000000000000600052604160045260246000fd5b613fc482613bd2565b810181811067ffffffffffffffff82111715613fe357613fe2613f8c565b5b80604052505050565b6000613ff66139d2565b90506140028282613fbb565b919050565b600067ffffffffffffffff82111561402257614021613f8c565b5b61402b82613bd2565b9050602081019050919050565b82818337600083830152505050565b600061405a61405584614007565b613fec565b90508281526020810184848401111561407657614075613f87565b5b614081848285614038565b509392505050565b600082601f83011261409e5761409d613dec565b5b81356140ae848260208601614047565b91505092915050565b6000602082840312156140cd576140cc6139dc565b5b600082013567ffffffffffffffff8111156140eb576140ea6139e1565b5b6140f784828501614089565b91505092915050565b600067ffffffffffffffff82111561411b5761411a613f8c565b5b602082029050602081019050919050565b600061413f61413a84614100565b613fec565b9050808382526020820190506020840283018581111561416257614161613df6565b5b835b8181101561418b57806141778882613c5f565b845260208401935050602081019050614164565b5050509392505050565b600082601f8301126141aa576141a9613dec565b5b81356141ba84826020860161412c565b91505092915050565b6000602082840312156141d9576141d86139dc565b5b600082013567ffffffffffffffff8111156141f7576141f66139e1565b5b61420384828501614195565b91505092915050565b600081519050919050565b600082825260208201905092915050565b6000819050602082019050919050565b61424181613ac1565b82525050565b600067ffffffffffffffff82169050919050565b61426481614247565b82525050565b61427381613a6b565b82525050565b600062ffffff82169050919050565b61429181614279565b82525050565b6080820160008201516142ad6000850182614238565b5060208201516142c0602085018261425b565b5060408201516142d3604085018261426a565b5060608201516142e66060850182614288565b50505050565b60006142f88383614297565b60808301905092915050565b6000602082019050919050565b600061431c8261420c565b6143268185614217565b935061433183614228565b8060005b8381101561436257815161434988826142ec565b975061435483614304565b925050600181019050614335565b5085935050505092915050565b600060208201905081810360008301526143898184614311565b905092915050565b600080604083850312156143a8576143a76139dc565b5b60006143b685828601613c5f565b92505060206143c785828601613aea565b9150509250929050565b600081519050919050565b600082825260208201905092915050565b6000819050602082019050919050565b61440681613c3e565b82525050565b600061441883836143fd565b60208301905092915050565b6000602082019050919050565b600061443c826143d1565b61444681856143dc565b9350614451836143ed565b8060005b83811015614482578151614469888261440c565b975061447483614424565b925050600181019050614455565b5085935050505092915050565b600060208201905081810360008301526144a98184614431565b905092915050565b6000806000606084860312156144ca576144c96139dc565b5b60006144d886828701613aea565b93505060206144e986828701613c5f565b92505060406144fa86828701613c5f565b9150509250925092565b61450d81613a6b565b811461451857600080fd5b50565b60008135905061452a81614504565b92915050565b60008060408385031215614547576145466139dc565b5b600061455585828601613aea565b92505060206145668582860161451b565b9150509250929050565b600067ffffffffffffffff82111561458b5761458a613f8c565b5b61459482613bd2565b9050602081019050919050565b60006145b46145af84614570565b613fec565b9050828152602081018484840111156145d0576145cf613f87565b5b6145db848285614038565b509392505050565b600082601f8301126145f8576145f7613dec565b5b81356146088482602086016145a1565b91505092915050565b6000806000806080858703121561462b5761462a6139dc565b5b600061463987828801613aea565b945050602061464a87828801613aea565b935050604061465b87828801613c5f565b925050606085013567ffffffffffffffff81111561467c5761467b6139e1565b5b614688878288016145e3565b91505092959194509250565b6080820160008201516146aa6000850182614238565b5060208201516146bd602085018261425b565b5060408201516146d0604085018261426a565b5060608201516146e36060850182614288565b50505050565b60006080820190506146fe6000830184614694565b92915050565b6000806040838503121561471b5761471a6139dc565b5b600061472985828601613aea565b925050602061473a85828601613aea565b9150509250929050565b60008083601f84011261475a57614759613dec565b5b8235905067ffffffffffffffff81111561477757614776613df1565b5b60208301915083602082028301111561479357614792613df6565b5b9250929050565b6000806000604084860312156147b3576147b26139dc565b5b600084013567ffffffffffffffff8111156147d1576147d06139e1565b5b6147dd86828701614744565b935093505060206147f086828701613c5f565b9150509250925092565b7f4e487b7100000000000000000000000000000000000000000000000000000000600052602260045260246000fd5b6000600282049050600182168061484157607f821691505b602082108103614854576148536147fa565b5b50919050565b7f5468652063616c6c657220697320616e6f7468657220636f6e74726163740000600082015250565b6000614890601e83613b8e565b915061489b8261485a565b602082019050919050565b600060208201905081810360008301526148bf81614883565b9050919050565b7f4d696e74206e6f74206163746976650000000000000000000000000000000000600082015250565b60006148fc600f83613b8e565b9150614907826148c6565b602082019050919050565b6000602082019050818103600083015261492b816148ef565b9050919050565b7f41757468206661696c6564000000000000000000000000000000000000000000600082015250565b6000614968600b83613b8e565b915061497382614932565b602082019050919050565b600060208201905081810360008301526149978161495b565b9050919050565b7f4e487b7100000000000000000000000000000000000000000000000000000000600052601160045260246000fd5b60006149d882613c3e565b91506149e383613c3e565b9250827fffffffffffffffffffffffffffffffffffffffffffffffffffffffffffffffff03821115614a1857614a1761499e565b5b828201905092915050565b7f4d696e746564204f757400000000000000000000000000000000000000000000600082015250565b6000614a59600a83613b8e565b9150614a6482614a23565b602082019050919050565b60006020820190508181036000830152614a8881614a4c565b9050919050565b7f57616c6c6574204d617820526561636865640000000000000000000000000000600082015250565b6000614ac5601283613b8e565b9150614ad082614a8f565b602082019050919050565b60006020820190508181036000830152614af481614ab8565b9050919050565b6000614b0682613c3e565b9150614b1183613c3e565b9250817fffffffffffffffffffffffffffffffffffffffffffffffffffffffffffffffff0483118215151615614b4a57614b4961499e565b5b828202905092915050565b7f496e73756666696369656e742045746800000000000000000000000000000000600082015250565b6000614b8b601083613b8e565b9150614b9682614b55565b602082019050919050565b60006020820190508181036000830152614bba81614b7e565b9050919050565b7f4e487b7100000000000000000000000000000000000000000000000000000000600052601260045260246000fd5b6000614bfb82613c3e565b9150614c0683613c3e565b925082614c1657614c15614bc1565b5b828204905092915050565b7f4e487b7100000000000000000000000000000000000000000000000000000000600052603260045260246000fd5b7f4578636565640000000000000000000000000000000000000000000000000000600082015250565b6000614c86600683613b8e565b9150614c9182614c50565b602082019050919050565b60006020820190508181036000830152614cb581614c79565b9050919050565b600081905092915050565b6000614cd282613b83565b614cdc8185614cbc565b9350614cec818560208601613b9f565b80840191505092915050565b6000614d048285614cc7565b9150614d108284614cc7565b91508190509392505050565b7f4d696e746564206f757400000000000000000000000000000000000000000000600082015250565b6000614d52600a83613b8e565b9150614d5d82614d1c565b602082019050919050565b60006020820190508181036000830152614d8181614d45565b9050919050565b6000614d9382613c3e565b91507fffffffffffffffffffffffffffffffffffffffffffffffffffffffffffffffff8203614dc557614dc461499e565b5b600182019050919050565b7f4f776e61626c653a206e6577206f776e657220697320746865207a65726f206160008201527f6464726573730000000000000000000000000000000000000000000000000000602082015250565b6000614e2c602683613b8e565b9150614e3782614dd0565b604082019050919050565b60006020820190508181036000830152614e5b81614e1f565b9050919050565b7f4f776e61626c653a2063616c6c6572206973206e6f7420746865206f776e6572600082015250565b6000614e98602083613b8e565b9150614ea382614e62565b602082019050919050565b60006020820190508181036000830152614ec781614e8b565b9050919050565b7f455243323938313a20726f79616c7479206665652077696c6c2065786365656460008201527f2073616c65507269636500000000000000000000000000000000000000000000602082015250565b6000614f2a602a83613b8e565b9150614f3582614ece565b604082019050919050565b60006020820190508181036000830152614f5981614f1d565b9050919050565b7f455243323938313a20696e76616c696420726563656976657200000000000000600082015250565b6000614f96601983613b8e565b9150614fa182614f60565b602082019050919050565b60006020820190508181036000830152614fc581614f89565b9050919050565b6000819050919050565b614fe7614fe282613c3e565b614fcc565b82525050565b60008160601b9050919050565b600061500582614fed565b9050919050565b600061501782614ffa565b9050919050565b61502f61502a82613ac1565b61500c565b82525050565b60006150418285614fd6565b602082019150615051828461501e565b6014820191508190509392505050565b600081519050919050565b600082825260208201905092915050565b600061508882615061565b615092818561506c565b93506150a2818560208601613b9f565b6150ab81613bd2565b840191505092915050565b60006080820190506150cb6000830187613ca1565b6150d86020830186613ca1565b6150e56040830185613d6f565b81810360608301526150f7818461507d565b905095945050505050565b60008151905061511181613a12565b92915050565b60006020828403121561512d5761512c6139dc565b5b600061513b84828501615102565b91505092915050565b7f19457468657265756d205369676e6564204d6573736167653a0a333200000000600082015250565b600061517a601c83614cbc565b915061518582615144565b601c82019050919050565b6000819050919050565b6000819050919050565b6151b56151b082615190565b61519a565b82525050565b60006151c68261516d565b91506151d282846151a4565b60208201915081905092915050565b7f4e487b7100000000000000000000000000000000000000000000000000000000600052602160045260246000fd5b7f45434453413a20696e76616c6964207369676e61747572650000000000000000600082015250565b6000615246601883613b8e565b915061525182615210565b602082019050919050565b6000602082019050818103600083015261527581615239565b9050919050565b7f45434453413a20696e76616c6964207369676e6174757265206c656e67746800600082015250565b60006152b2601f83613b8e565b91506152bd8261527c565b602082019050919050565b600060208201905081810360008301526152e1816152a5565b9050919050565b7f45434453413a20696e76616c6964207369676e6174757265202773272076616c60008201527f7565000000000000000000000000000000000000000000000000000000000000602082015250565b6000615344602283613b8e565b915061534f826152e8565b604082019050919050565b6000602082019050818103600083015261537381615337565b9050919050565b7f45434453413a20696e76616c6964207369676e6174757265202776272076616c60008201527f7565000000000000000000000000000000000000000000000000000000000000602082015250565b60006153d6602283613b8e565b91506153e18261537a565b604082019050919050565b60006020820190508181036000830152615405816153c9565b9050919050565b61541581615190565b82525050565b6000608082019050615430600083018761540c565b61543d6020830186613d18565b61544a604083018561540c565b615457606083018461540c565b9594505050505056fea2646970667358221220157857973636666c74bc084a51ab7756e37e41184d5200461fc3c8dfb8f6cdd364736f6c634300080d0033",
  "immutableReferences": {},
  "source": "// SPDX-License-Identifier: MIT\r\npragma solidity ^0.8.13;\r\n\r\nimport \"@openzeppelin/contracts/security/ReentrancyGuard.sol\";\r\nimport \"erc721a/contracts/extensions/ERC721AQueryable.sol\";\r\nimport \"@openzeppelin/contracts/access/Ownable.sol\";\r\nimport \"@openzeppelin/contracts/token/common/ERC2981.sol\";\r\nimport \"@openzeppelin/contracts/utils/cryptography/ECDSA.sol\";\r\n\r\ncontract LOREMNFT is ERC721AQueryable, ReentrancyGuard, ERC2981, Ownable {\r\n    using ECDSA for bytes32;\r\n\r\n    uint public tokenPrice; \r\n    uint public maxcollectionSize = 10000;\r\n    uint8 public maxPerAddress = 1;\r\n    uint public quantityForMint = 9900;\r\n    uint8 public salesStage = 0;\r\n\r\n\r\n    mapping(address => uint) public alMinted;\r\n    mapping(address => uint) public publicMinted;\r\n    mapping(uint => mapping(address => uint)) public authorizedMinteds;\r\n  \r\n    string public _baseTokenURI;\r\n    address public _adminSigner;\r\n\r\n    constructor() ERC721A(\"LOREMNFT\", \"LOREM\") {}\r\n         \r\n    // allow list signature\r\n    function alMint(uint quantity, uint allowquantity, bytes calldata signature ) public payable callerIsUser {\r\n        require(salesStage == 1, \"Mint not active\");\r\n        require(isAllowListAuthorized(msg.sender,  allowquantity, signature), \"Auth failed\");\r\n        require(totalSupply() + quantity <= quantityForMint, \"Minted Out\");\r\n        require(alMinted[msg.sender] + quantity <= allowquantity, \"Wallet Max Reached\");\r\n        require(tokenPrice * quantity <= msg.value, \"Insufficient Eth\");\r\n\r\n        _minttokens(msg.sender, quantity);\r\n        alMinted[msg.sender] += quantity;\r\n    }\r\n\r\n    // public mint with signature\r\n    function authorizedMint(uint quantity, uint allowquantity, bytes calldata signature ) public payable callerIsUser{\r\n        require(salesStage > 1 && salesStage < 9, \"Mint not active\");\r\n        require(isAllowListAuthorized(msg.sender,  allowquantity, signature), \"Auth failed\");\r\n        require(totalSupply() + quantity <= quantityForMint, \"Minted Out\");\r\n        require(authorizedMinteds[salesStage][msg.sender] + quantity <= maxPerAddress, \"Wallet Max Reached\");\r\n        require(tokenPrice * quantity <= msg.value, \"Insufficient Eth\");\r\n\r\n        _minttokens(msg.sender, quantity);\r\n        authorizedMinteds[salesStage][msg.sender] += quantity;\r\n    }\r\n\r\n    // public mint without signature\r\n    function publicMint(uint quantity) public payable callerIsUser{\r\n        require(salesStage == 9, \"Mint not active\");\r\n        require(publicMinted[msg.sender] + quantity <= maxPerAddress, \"Wallet Max Reached\");\r\n        require(totalSupply() + quantity <= quantityForMint, \"Minted Out\");\r\n        require(tokenPrice * quantity <= msg.value, \"Insufficient Eth\");\r\n        \r\n        _minttokens(msg.sender, quantity);\r\n        publicMinted[msg.sender] += quantity;\r\n        \r\n    }\r\n    \r\n    function isAllowListAuthorized(\r\n        address sender, \r\n        uint allowAmount,\r\n        bytes calldata signature\r\n    ) private view returns (bool) {\r\n        bytes32 messageDigest = keccak256(abi.encodePacked(allowAmount, sender));\r\n        bytes32 ethHashMessage = messageDigest.toEthSignedMessageHash();\r\n        return ethHashMessage.recover(signature) == _adminSigner;\r\n\r\n    }\r\n     \r\n    function _minttokens(address _to, uint _quantity ) internal {\r\n          _safeMint(_to, _quantity);\r\n    }\r\n\r\n\r\n    // override ERC721A\r\n    function _baseURI() internal view virtual override returns (string memory) {\r\n        return _baseTokenURI;\r\n    }\r\n\r\n    //only owner\r\n    function withdraw() public onlyOwner {\r\n        uint balance = address(this).balance;\r\n        payable(msg.sender).transfer(balance);\r\n    }\r\n\r\n    function teamMint(address[] calldata to_, uint256 quantity_ ) public onlyOwner {        \r\n      require( totalSupply() + to_.length*quantity_ <= maxcollectionSize, \"Minted out\");\r\n      for (uint256 i = 0; i < to_.length; i++) {\r\n      _minttokens(to_[i], quantity_);\r\n      }\r\n    }\r\n\r\n    function setQuantityForMint(uint256 newquantityForMint) public onlyOwner {\r\n      require( newquantityForMint <= maxcollectionSize, \"Exceed\");\r\n      quantityForMint = newquantityForMint;\r\n    }\r\n\r\n    function setPrice(uint256 newPrice) public onlyOwner {\r\n      tokenPrice = newPrice;\r\n    }\r\n\r\n    function setMaxPerAddress(uint8 newmaxPerAddress) public onlyOwner {\r\n      maxPerAddress = newmaxPerAddress;\r\n    }\r\n\r\n    function setSigner(address newSigner) external onlyOwner {\r\n       _adminSigner = newSigner;\r\n    }\r\n    \r\n    function setBaseURI(string memory newURI) external onlyOwner {\r\n      _baseTokenURI = newURI;\r\n    }\r\n  \r\n    function setSalesStage(uint8 newSalesStage) public onlyOwner {\r\n        salesStage = newSalesStage;\r\n    }\r\n    \r\n    //@dev Update the royalty percentage (1000 = 10%)\r\n    function setDefaultRoyalty(address receiver, uint96 feeNumerator) external onlyOwner {\r\n        _setDefaultRoyalty(receiver, feeNumerator);\r\n    }\r\n\r\n   function supportsInterface(bytes4 interfaceId) public view virtual override(ERC721A, ERC2981, IERC721A) returns (bool) {\r\n        // - IERC165: 0x01ffc9a7\r\n        // - IERC721: 0x80ac58cd\r\n        // - IERC721Metadata: 0x5b5e139f\r\n        // - IERC2981: 0x2a55205a\r\n        return \r\n            ERC721A.supportsInterface(interfaceId) || \r\n            ERC2981.supportsInterface(interfaceId);\r\n    }\r\n\r\n    modifier callerIsUser() {\r\n        require(tx.origin == msg.sender, \"The caller is another contract\");\r\n        _;\r\n    }\r\n\r\n\r\n}\r\n   \r\n    \r\n\r\n\r\n",
  "sourcePath": "C:/Users/chiku/Documents/contract/loremprod/contracts/LOREMNFT.sol",
  "compiler": {
    "name": "solc",
    "version": "0.8.13+commit.abaa5c0e.Emscripten.clang"
  },
  "schemaVersion": "3.3.4",
  "updatedAt": "2022-08-24T10:09:04.457Z",
  "networkType": "ethereum",
  "devdoc": {
    "kind": "dev",
    "methods": {
      "approve(address,uint256)": {
        "details": "See {IERC721-approve}."
      },
      "balanceOf(address)": {
        "details": "See {IERC721-balanceOf}."
      },
      "explicitOwnershipOf(uint256)": {
        "details": "Returns the `TokenOwnership` struct at `tokenId` without reverting. If the `tokenId` is out of bounds:   - `addr` = `address(0)`   - `startTimestamp` = `0`   - `burned` = `false`   - `extraData` = `0` If the `tokenId` is burned:   - `addr` = `<Address of owner before token was burned>`   - `startTimestamp` = `<Timestamp when token was burned>`   - `burned = `true`   - `extraData` = `<Extra data when token was burned>` Otherwise:   - `addr` = `<Address of owner>`   - `startTimestamp` = `<Timestamp of start of ownership>`   - `burned = `false`   - `extraData` = `<Extra data at start of ownership>`"
      },
      "explicitOwnershipsOf(uint256[])": {
        "details": "Returns an array of `TokenOwnership` structs at `tokenIds` in order. See {ERC721AQueryable-explicitOwnershipOf}"
      },
      "getApproved(uint256)": {
        "details": "See {IERC721-getApproved}."
      },
      "isApprovedForAll(address,address)": {
        "details": "See {IERC721-isApprovedForAll}."
      },
      "name()": {
        "details": "See {IERC721Metadata-name}."
      },
      "owner()": {
        "details": "Returns the address of the current owner."
      },
      "ownerOf(uint256)": {
        "details": "See {IERC721-ownerOf}."
      },
      "renounceOwnership()": {
        "details": "Leaves the contract without owner. It will not be possible to call `onlyOwner` functions anymore. Can only be called by the current owner. NOTE: Renouncing ownership will leave the contract without an owner, thereby removing any functionality that is only available to the owner."
      },
      "royaltyInfo(uint256,uint256)": {
        "details": "Returns how much royalty is owed and to whom, based on a sale price that may be denominated in any unit of exchange. The royalty amount is denominated and should be paid in that same unit of exchange."
      },
      "safeTransferFrom(address,address,uint256)": {
        "details": "See {IERC721-safeTransferFrom}."
      },
      "safeTransferFrom(address,address,uint256,bytes)": {
        "details": "See {IERC721-safeTransferFrom}."
      },
      "setApprovalForAll(address,bool)": {
        "details": "See {IERC721-setApprovalForAll}."
      },
      "symbol()": {
        "details": "See {IERC721Metadata-symbol}."
      },
      "tokenURI(uint256)": {
        "details": "See {IERC721Metadata-tokenURI}."
      },
      "tokensOfOwner(address)": {
        "details": "Returns an array of token IDs owned by `owner`. This function scans the ownership mapping and is O(totalSupply) in complexity. It is meant to be called off-chain. See {ERC721AQueryable-tokensOfOwnerIn} for splitting the scan into multiple smaller scans if the collection is large enough to cause an out-of-gas error (10K pfp collections should be fine)."
      },
      "tokensOfOwnerIn(address,uint256,uint256)": {
        "details": "Returns an array of token IDs owned by `owner`, in the range [`start`, `stop`) (i.e. `start <= tokenId < stop`). This function allows for tokens to be queried if the collection grows too big for a single call of {ERC721AQueryable-tokensOfOwner}. Requirements: - `start` < `stop`"
      },
      "totalSupply()": {
        "details": "Returns the total number of tokens in existence. Burned tokens will reduce the count. To get the total number of tokens minted, please see `_totalMinted`."
      },
      "transferFrom(address,address,uint256)": {
        "details": "Transfers `tokenId` from `from` to `to`. Requirements: - `to` cannot be the zero address. - `tokenId` token must be owned by `from`. Emits a {Transfer} event."
      },
      "transferOwnership(address)": {
        "details": "Transfers ownership of the contract to a new account (`newOwner`). Can only be called by the current owner."
      }
    },
    "version": 1
  },
  "userdoc": {
    "errors": {
      "ApprovalCallerNotOwnerNorApproved()": [
        {
          "notice": "The caller must own the token or be an approved operator."
        }
      ],
      "ApprovalQueryForNonexistentToken()": [
        {
          "notice": "The token does not exist."
        }
      ],
      "ApproveToCaller()": [
        {
          "notice": "The caller cannot approve to their own address."
        }
      ],
      "BalanceQueryForZeroAddress()": [
        {
          "notice": "Cannot query the balance for the zero address."
        }
      ],
      "InvalidQueryRange()": [
        {
          "notice": "Invalid query range (`start` >= `stop`)."
        }
      ],
      "MintERC2309QuantityExceedsLimit()": [
        {
          "notice": "The `quantity` minted with ERC2309 exceeds the safety limit."
        }
      ],
      "MintToZeroAddress()": [
        {
          "notice": "Cannot mint to the zero address."
        }
      ],
      "MintZeroQuantity()": [
        {
          "notice": "The quantity of tokens minted must be more than zero."
        }
      ],
      "OwnerQueryForNonexistentToken()": [
        {
          "notice": "The token does not exist."
        }
      ],
      "OwnershipNotInitializedForExtraData()": [
        {
          "notice": "The `extraData` cannot be set on an unintialized ownership slot."
        }
      ],
      "TransferCallerNotOwnerNorApproved()": [
        {
          "notice": "The caller must own the token or be an approved operator."
        }
      ],
      "TransferFromIncorrectOwner()": [
        {
          "notice": "The token must be owned by `from`."
        }
      ],
      "TransferToNonERC721ReceiverImplementer()": [
        {
          "notice": "Cannot safely transfer to a contract that does not implement the ERC721Receiver interface."
        }
      ],
      "TransferToZeroAddress()": [
        {
          "notice": "Cannot transfer to the zero address."
        }
      ],
      "URIQueryForNonexistentToken()": [
        {
          "notice": "The token does not exist."
        }
      ]
    },
    "kind": "user",
    "methods": {},
    "version": 1
  }
}